:1000000000000420C1450000E9450000EB45000068
:10001000ED450000EF450000F14500000000000044
:10002000000000000000000000000000F345000098
:10003000F545000000000000F7450000F94500000C
:1000400075170000F559020099470200CD1E000007
:10005000FB450000FB450000E9230000FB450000D4
:10006000FB450000FB450000FB450000FB45000090
:10007000FB450000E94C0200FB450000FB45000089
:10008000FB450000590C0000FB450000FB4500004B
:10009000F90C0000FB450000FB450000FB4500009B
:1000A000FB450000FB450000FB450000FB45000050
:1000B000FB450000FB4500000000000000000000C0
:1000C000FB450000FB450000FB450000FB45000030
:1000D000B1440200FB450000FB450000FB45000069
:1000E000FB450000FB450000FB450000FB45000010
:1000F00000000000FB4500000000000000000000C0
:1001000000000000000000000000000000000000EF
:1001100000000000000000000000000000000000DF
:1001200000000000000000000000000000000000CF
:1001300000000000000000000000000000000000BF
:1001400000000000000000000000000000000000AF
:10015000000000000000000000000000000000009F
:10016000000000000000000000000000000000008F
:10017000000000000000000000000000000000007F
:10018000000000000000000000000000000000006F
:10019000000000000000000000000000000000005F
:1001A000000000000000000000000000000000004F
:1001B000000000000000000000000000000000003F
:1001C000000000000000000000000000000000002F
:1001D000000000000000000000000000000000001F
:1001E000000000000000000000000000000000000F
:1001F00000000000000000000000000000000000FF
:1002000010B5054C237833B9044B13B10448AFF350
:1002100000800123237010BD600B0020000000004F
:100220005C040400084B10B51BB108490848AFF343
:1002300000800848036803B910BD074B002BFBD0B2
:10024000BDE81040184700BF00000000640B00200C
:100250005C040400580B002000000000154B002B2C
:1002600008BF134B9D46A3F5803A00218B460F46ED
:100270001348144A121A00F065F80F4B002B00D0F7
:1002800098470E4B002B00D0984700200021040017
:100290000D000D48002802D00C48AFF3008000F09C
:1002A0002BF82000290003F02DFF00F011F800BF0B
:1002B0000000080000000420000000000000000012
:1002C000600B002010E5002000000000000000008E
:1002D00008B5074B044613B10021AFF30080054B6E
:1002E0001868836A03B19847204600F033F800BFCE
:1002F00000000000C487030070B50E4B0E4CE41ADA
:10030000A41000251E46A54204D056F82530984773
:100310000135F8E738F04AFA084C094BE41AA41002
:1003200000251E46A54204D056F8253098470135D1
:10033000F8E770BD500B0020500B0020540B00203C
:10034000500B002002440346934202D003F8011BE5
:10035000FAE77047FEE700BFF0B51746C7B01C4686
:10036000B9B106AE0B68604A30464FF4807137F081
:10037000B9F900280ADB4C9B0546062B00F2B28037
:10038000DFE803F012323B4653637500002047B0AC
:10039000F0BD4C9B062B00F2A380DFE803F0048B3A
:1003A00090957C8186000025384637F026FA43195F
:1003B000FF2B044640F28D80002CE7DB2C44B4F583
:1003C000807FE3D80A27002506AE22467119002057
:1003D00003F098FF0544241A08B9013F01D0002C0E
:1003E000F3D1012047B0F0BDC0F5807123683A46D3
:1003F000701937F077F90446DEE7C0F5807162685E
:100400002368009270193A4637F06CF90446D3E736
:10041000C0F58071A2682368646800940192701925
:100420003A4637F05FF90446C6E7C0F58071E268E6
:100430002368D4F808E0646802928DE810403A46D8
:10044000701937F04FF90446B6E7C0F5807120699E
:10045000E26823680390D4F808E0646802928DE8AB
:1004600010403A46701937F03DF90446A4E7C0F54C
:1004700080716269206923680492E2680390D4F86D
:1004800008E0646802928DE810403A46701937F02F
:1004900029F9044690E74FF48071002506AEC6E7BF
:1004A0004FF48071002506AED1E74FF4807100252E
:1004B00006AEDEE74FF48071002506AE96E74FF4F6
:1004C0008071002506AE9AE74FF48071002506AED4
:1004D000A0E706AE39467019224636F052FD6BE7AA
:1004E00000246FE7002469E7C88703002DE9F04F77
:1004F0001446C7B01D46002900F02381002B00F0F0
:1005000004810A2302934FF0000B06AF519B539ACC
:10051000134420261C4602990BEB0103049331334C
:10052000FB18039307EB0B031A460193002965D0D0
:10053000534203F003038B4228BF0B46062900F207
:10054000DB800B46019907F80B600A46012B02F18C
:10055000010200F0CF80022B4E7001F1020200F088
:10056000C980032B8E7001F1030200F0C3800A469C
:10057000042BCE7002F1040200F0BC80062B0E7139
:1005800001F1050240F0BE804E718A1D9846029925
:1005900099422ED00298C3EB0009A9F1040100F1A1
:1005A000FF3E8908C3EB0E0E0131BEF1020F4FEA88
:1005B000810C12D95B444FF0203E012907EB030B5D
:1005C00047F803E005D00229CBF804E001D0CBF8CE
:1005D00008E0E1456244E0440BD00299167008F14E
:1005E00001038B4205D208F102008842567000D206
:1005F0009670019B029A134401931A46039B059738
:1006000002F1330A274602F1030B544603F10109B4
:10061000DDF844A10DE00BF8036C0BF8026C0BF84D
:10062000016C0BF1030BA34509F8016C09F10109F9
:100630002FD0AF42EFD9AA4556D9509B13F8058069
:100640000BF8016C4FEA28105FFA80FE092808F0C9
:100650000F00D4BF0EF1300E0EF1370E092894BFF3
:10066000303037300BF803EC0BF8020C36F05EFC40
:1006700040440BF1030B407810F0970F08BF4FF088
:100680002E08A34509F8018C05F1010509F10109BE
:10069000CFD1049B039903F1430A019B3C460D22F1
:1006A0004FF00A0B059F0A7481F811B0A14683F838
:1006B00030604FF000085446224607EB0801002046
:1006C00003F020FE8044241A10B9BBF1010B01D0C5
:1006D000002CF1D14D454C464FF0000BFFF41BAF01
:1006E000284647B0BDE8F08FCAEB0500529B13F8CF
:1006F0000080A5E798464AE7002B7FF423AF019AD4
:10070000984647E74FF0050841E706AF0B68114AE6
:1007100038464FF4807136F0E5FF0028E0DB0A230D
:1007200006460293204637F068F8C22828BFC22048
:10073000834602462146B81936F023FC0025B3440F
:10074000E4E61BB902952E4606AFEBE702918B4615
:1007500006AFDBE6C887030070B5074D074E2B7860
:1007600013B13378834205D0044603F0F9FE012328
:1007700034702B70002070BD7D0B00207C0B00209E
:10078000004870475903000000487047ED0400001E
:1007900038B50120FFF7E0FF044638B9FFF7F0FF56
:1007A0000546FFF7F1FF024B5D619861204638BDB9
:1007B000800B002010B5054C82B000230A46646906
:1007C00000931946A04702B010BD00BF800B002067
:1007D00030B585B004AB054C43F8042D01250A461D
:1007E000646900950021A04705B030BD800B002052
:1007F000084B185C1F288ABF074B4FF0A04300F03E
:100800001F00D3F8043523FA00F000F0010080F057
:1008100001007047D087030000030050074B1B5CAA
:100820001F2B86BF03F01F0305494FF0A041012293
:1008300002FA03F3C1F80C35704700BFD0870300FC
:1008400000030050074B1B5C1F2B86BF03F01F03E8
:1008500005494FF0A041012202FA03F3C1F808351F
:10086000704700BFD0870300000300504FF0A04343
:1008700010B44FF480404FF400544FF400414FF453
:100880008032C3F80845C3F80805C3F80815C3F853
:1008900008255DF8044B70474FF0A04310B44FF4A7
:1008A00080404FF400544FF400414FF48032C3F8BD
:1008B0000C45C3F80C05C3F80C15C3F80C255DF8FE
:1008C000044B70470D4B10B4195C1F298CBF0C48AA
:1008D0004FF0A0404FF00102D0F8044588BF01F06E
:1008E0001F0102FA01F323EA04022340C0F808259D
:1008F000C0F80C355DF8044B704700BFD08703008B
:100900000003005030B44FF0A04303224FF40055D1
:100910004FF480444FF400404FF48031C3F8342743
:10092000C3F83827C3F83C27C3F84027C3F8085555
:10093000C3F80845C3F80805C3F8081530BC70476C
:100940000B2809D00C2809D0182809D019280CBF69
:1009500003204FF0FF3070470020704701207047A0
:1009600002207047454B1978002900F085802DE959
:10097000F04F002487B001258E4603E00134E4B235
:10098000744560D23E4B27B21E6816F83700A0F1BE
:10099000200305FA03F93B4BC0F12001D3E9002302
:1009A00025FA01F149EA010905FA00F808EA020A04
:1009B00009EA030B5AEA0B0C06EBC701DED00591DE
:1009C000304922EA080223EA0903C1E9002301F0C1
:1009D000FBFC16F837E0AEF1200205FA02F20192B4
:1009E0000199CEF12003C6B225FA03F3AEF120023D
:1009F000194306FA02F30393019105FA0EF10091EF
:100A0000CEF120000399204B26FA00F00143039118
:100A100006FA0EF1D3E900230291DDE9000110404E
:100A2000194002460B46DDE902018B4208BF8242B3
:100A30004FF00007059909D0104B013493F800E0FE
:100A4000E4B274459ED307B0BDE8F08FD1F804A09E
:100A5000BAF1000FF0D04A78A2F101020023B2FAF5
:100A600082F2BB424FEA521208BFB24270460CBF3C
:100A700001210021D047DFE7704700BFA40B002011
:100A8000A00B0020D00B0020C80B00202DE9F8435C
:100A90000646204800F07AFDD0B91F4F0123A6F189
:100AA000200103FA01F5C6F12002D7E9000123FA7B
:100AB00002F2154303FA06F404EA000205EA010310
:100AC000134307D020EA040421EA0505C7E90045DD
:100AD000BDE8F883304601F077FC104ED6E9008976
:100AE00098B148EA040849EA0509D7E90023144304
:100AF0001D43C6E90089C7E90045094B0548196847
:100B00000022BDE8F84300F0F1BC28EA040829EA15
:100B10000509EAE7A80B0020D00B0020C80B002035
:100B20009C0B0020042A01D807207047F0B583B041
:100B30000F460546164601F0D1FA002833D01C4C6A
:100B40001C4A1D4B1D481E49256017707C1E002243
:100B50001E600023C0E90023C1E90023E4B2E7B12D
:100B60000327002602E0DBB2BCB11C4623B205EB32
:100B7000C30215F833009378124A8DF8053001A9A5
:100B80008DF804708DF806608DF8076001F0C8FAE2
:100B9000631E0028E7D003B0F0BD0B4A0B480021CC
:100BA00000F092FCF7E701F053FA0028C7D0F2E713
:100BB000A00B0020A40B00209C0B0020C80B0020E1
:100BC000D00B00208D0A000065090000D4870300C7
:100BD00070B5084D2B785BB1074E002433680121B6
:100BE00013F8340001F074FB2B780134A342F5D8DC
:100BF000002070BDA40B0020A00B002000B585B024
:100C000000230390194601AA44F20100ADF8043014
:100C1000029300F003F805B05DF804FB08B50A493B
:100C20000120FFF7C7FD09490320FFF7C3FDBFF30C
:100C30004F8F0749074BCA6802F4E0621343CB6049
:100C4000BFF34F8F00BFFDE7D8870300E88703009D
:100C500000ED00E00400FA05F8B5204A204B00251D
:100C6000C2F84051C2F84451C2F84851C2F84C5140
:100C7000C2F80051C2F804511B6813B31949D2F8E5
:100C800004250C68141B1A6824F07F44A2422F46E6
:100C900009D8197CDE69A41A154499B91EB13346E6
:100CA0001A68A242F5D9104B10491A780B789A426B
:100CB0000DD00F490F4A41F823504FF48013C2F86A
:100CC0000031F8BD1F745A6998699047E6E7531CD4
:100CD000DBB2022B08BF00230B70EAE700100140D3
:100CE000DC0B0020D80B0020E00B0020E10B0020E3
:100CF000F00C002000E100E02DE9F04F884A89491E
:100D00001378097899428BB037D00133DBB2022BCC
:100D100008BF002384491370844A0E68029152F878
:100D20002300834905910B6802993218002522F0AF
:100D30007F420A602C462946AE46ABB11A68824211
:100D400000F2E681DD68C3F800E0801A1444DA6935
:100D500035B1371927F07F47D9619D605F6019462B
:100D600013460125002BE9D1002D40F0DC82002341
:100D7000069301230893069A08E06D4B05931B68C0
:100D8000694A02920021069308911A46694BDFF8DE
:100D9000AC811B780393059B1B681C46029B1F6854
:100DA0000023BA460F460993C3460793994618464F
:100DB0004FF0010E0193A4463FB37D68BE683946EB
:100DC000FF695D4BCAEB050424F07F449C423CD88C
:100DD000A3190B604860886081F810E0C861002AA0
:100DE00068D015689D4249D2164603E025689D42A9
:100DF00034D22646F4695B1B002CF7D1CC610B6022
:100E00001446F1612246002FD7D198F8003098F8A7
:100E10000110994200F09480591C03EB43039BF8A6
:100E2000024008EBC303C9B28C421C798BF8001056
:100E300008BF8BF80070022C99684ED0032C3FD06D
:100E4000012C24D014462246DDE7C5EB0A0525F027
:100E50007F45B54209D2731B0B60BBE7ED1A2560D5
:100E6000CC610B601446F161CCE708604860886093
:100E700081F810E0C861EAB115680023EB1A0C464E
:100E800013608C46CA614FF001092246BBE70C7C17
:100E90000494002CD6D1DD684D601E698E605C69BB
:100EA000CC609B698B61039B002B8AD0049B4B60B9
:100EB0001D4686E70C468C464FF001092246A2E704
:100EC0000AB9BFE71A46D3691074002BFAD11C4641
:100ED0009C464FF00109224695E752B1914200F03D
:100EE0000B81134602E0B14207D03346DE69002E83
:100EF000F9D114460874224685E7994200F0FE8035
:100F00001446F5693668DD6115B12B6833442B60F2
:100F1000019B0874A24218BF01230193EBE700BFB5
:100F2000E00B0020E10B0020D80B0020F00C00208B
:100F3000DC0B0020E20B0020FEFF7F00E40B002012
:100F40005746DDF804A0B9F1000F40F04981079B36
:100F5000002B40F0E581099B002B40F0DC81BAF1C9
:100F6000000F03D1069B9A4200F03F81002A00F057
:100F700041816C49029BD1F804051B686A4C1768D3
:100F80002578C21A22F07F420332002D51D1674DDD
:100F9000DFF89CC1DFF89CE14FF48036C1F8446370
:100FA000C1F804634FF40036C5F880612E60012556
:100FB0000D60DCF800602F2100BF00BF00BF00BF44
:100FC00000BF00BF00BF00BF76452FD000BF00BFED
:100FD00000BF00BF00BF00BF00BF00BF00BF00BF19
:100FE00000BF00BF00BF00BF00BF00BF00BF00BF09
:100FF00000BF00BF00BF00BF00BF00BF00BF00BFF9
:1010000000BF00BF00BF00BF00BF00BF00BF00BFE8
:1010100000BF00BF00BF00BF00BF00BF00BF00BFD8
:1010200000BF00BF00BF00BF00BF00BF0139C3D178
:10103000257097422CBFDA199A183A4922F07F435B
:10104000C1F84035D1F80425121A1B1A22F07F424C
:1010500023F07F4303329A4248D9D1F80435344A09
:10106000C1F84035126833492F2300BF00BF00BFCD
:1010700000BF00BF00BF00BF00BF8A422FD000BF2B
:1010800000BF00BF00BF00BF00BF00BF00BF00BF68
:1010900000BF00BF00BF00BF00BF00BF00BF00BF58
:1010A00000BF00BF00BF00BF00BF00BF00BF00BF48
:1010B00000BF00BF00BF00BF00BF00BF00BF00BF38
:1010C00000BF00BF00BF00BF00BF00BF00BF00BF28
:1010D00000BF00BF00BF00BF00BF00BF00BF013B9B
:1010E000C3D1124B4FF40032C3F80021124A00233F
:1010F00013700BB0BDE8F08F16461346D2F81C9063
:10110000B9F1000F1AD0CC464C464FF00109F8E671
:10111000002D62D1121A1A60069301230893069AD1
:1011200034E600BF00100140F80C002000E100E0B0
:10113000940900200024F400E20B00207B4C7C4D3D
:10114000C4F808E07B4C4FF02F0C246800BF00BFB0
:1011500000BF00BF00BF00BF00BF00BFAC422FD028
:1011600000BF00BF00BF00BF00BF00BF00BF00BF87
:1011700000BF00BF00BF00BF00BF00BF00BF00BF77
:1011800000BF00BF00BF00BF00BF00BF00BF00BF67
:1011900000BF00BF00BF00BF00BF00BF00BF00BF57
:1011A00000BF00BF00BF00BF00BF00BF00BF00BF47
:1011B00000BF00BF00BF00BF00BF00BF00BF00BF37
:1011C000BCF1010CC2D1012425460994CC464C4601
:1011D000CA4603950795A94693E6059C236099E7BF
:1011E000059B1946C1F800C0B1E6089B002B3FF4EF
:1011F0007DAFBBE64D49504B4E4E4D4C4FF48030C9
:101200004FF400370125C3F88070C1F848032F233D
:10121000C1F808034D6030681E4600BF00BF00BF24
:1012200000BF00BF00BF00BF00BFA0422FD000BF63
:1012300000BF00BF00BF00BF00BF00BF00BF00BFB6
:1012400000BF00BF00BF00BF00BF00BF00BF00BFA6
:1012500000BF00BF00BF00BF00BF00BF00BF00BF96
:1012600000BF00BF00BF00BF00BF00BF00BF00BF86
:1012700000BF00BF00BF00BF00BF00BF00BF00BF76
:1012800000BF00BF00BF00BF00BF00BF00BF013EE6
:10129000C3D18D6002990A6000BF00BF00BF00BFCC
:1012A00000BF00BF00BF00BFA0422FD000BF00BFE3
:1012B00000BF00BF00BF00BF00BF00BF00BF00BF36
:1012C00000BF00BF00BF00BF00BF00BF00BF00BF26
:1012D00000BF00BF00BF00BF00BF00BF00BF00BF16
:1012E00000BF00BF00BF00BF00BF00BF00BF00BF06
:1012F00000BF00BF00BF00BF00BF00BF00BF00BFF6
:1013000000BF00BF00BF00BF00BF00BF013BC3D193
:101310000A4B1A70EAE60A4B9DF80C1019701EE68B
:10132000029B1F6017E6059A136020E5001001403C
:101330000024F4009409002000E100E0F80C0020F3
:10134000E20B0020F0B4564B564A574E574C4FF420
:1013500080304FF400310125C2F88010C3F84803F3
:101360002F21C3F808035D6030680E4600BF00BF40
:1013700000BF00BF00BF00BF00BF00BFA0422FD012
:1013800000BF00BF00BF00BF00BF00BF00BF00BF65
:1013900000BF00BF00BF00BF00BF00BF00BF00BF55
:1013A00000BF00BF00BF00BF00BF00BF00BF00BF45
:1013B00000BF00BF00BF00BF00BF00BF00BF00BF35
:1013C00000BF00BF00BF00BF00BF00BF00BF00BF25
:1013D00000BF00BF00BF00BF00BF00BF00BF00BF15
:1013E000013EC3D19D6000BF00BF00BF00BF00BF72
:1013F00000BF00BF00BFA0422FD000BF00BF00BF92
:1014000000BF00BF00BF00BF00BF00BF00BF00BFE4
:1014100000BF00BF00BF00BF00BF00BF00BF00BFD4
:1014200000BF00BF00BF00BF00BF00BF00BF00BFC4
:1014300000BF00BF00BF00BF00BF00BF00BF00BFB4
:1014400000BF00BF00BF00BF00BF00BF00BF00BFA4
:1014500000BF00BF00BF00BF00BF0139C3D1144EA1
:10146000144D154C1549164F00203070286020701F
:101470004FF48015E0240B26087048708E70387089
:101480001049C2F8805182F814431560C3F808056A
:1014900082F81143D3F804350B60F0BC704700BFED
:1014A0000010014000E100E0940900200024F40055
:1014B000F80C0020DC0B0020E00B0020E40B0020E7
:1014C000E10B0020D80B0020074B9B780BB90820BC
:1014D00070473AB130B10368187C0028F7D15974CD
:1014E0005A61704707207047E40B00202DE9F04156
:1014F000234CA37813B90820BDE8F0810028FAD066
:10150000042902D80720BDE8F0814369002BF2D0FE
:10151000437C0546012B4FF000000CBF88468046F7
:1015200017460E4600F068F86378A07821785A1CB8
:10153000D2B2904208BF002291421AD003EB43037B
:1015400004EBC30301200F499D601871D1F8041505
:10155000D9601E61C3F814809F610020627000F0A2
:1015600053F8094B4FF48012C3F800210020BDE866
:10157000F081002000F048F80420BDE8F08100BFB1
:10158000E40B00200010014000E100E070B5184DB0
:10159000AB780BB9082070BD0028FBD04369002B45
:1015A000F8D0002404740646204600F025F86A7836
:1015B000A8782978531CDBB2984208BF2346994289
:1015C00011D002EB420205EBC202022120469660D6
:1015D00011716B7000F018F8064B4FF48012C3F8CD
:1015E0000021204670BD204600F00EF8042070BD9A
:1015F000E40B002000E100E072B6024A13680133F8
:1016000013607047FC0C0020034A1368013B136011
:1016100003B962B6704700BFFC0C002010B50D4C3A
:1016200023780BB1852010BD0B4A6360E36010681E
:10163000A36010F00100236107D04FF08042012326
:10164000C2F818352370002010BD072100F0CEF835
:10165000F3E700BF000D002000E100E030B51B4DB6
:10166000AB7883B0044673B110B14368012098474A
:101670000020FFF7C1FFEB6800200133EB60FFF7AC
:10168000C3FF03B030BD03F0FF00FFF7B5FF64B147
:101690002A6942B1944208D0134601E09C4204D02A
:1016A0001B68002BFAD122602C61EB68002BE2D181
:1016B000074A08491360136801934FF080420220E3
:1016C0000123019CC2F804030B60D4E7000D002045
:1016D00004010040080000404FF08043D3F8180494
:1016E000C0F30040704700BF30B51A4D6B7883B02F
:1016F000044673B110B14368002098470020FFF7FB
:101700007BFF6B68002001336B60FFF77DFF03B048
:1017100030BD03F0FF00FFF76FFF64B1AA6842B16C
:10172000944208D0134601E09C4204D01B68002B71
:10173000FAD12260AC606B68002BE2D1064A1360DC
:10174000136801934FF0804301220199C3F80423E9
:101750001A60D6E7000D0020000100404FF08043E2
:10176000D3F80C0400F00110A0F10110B0FA80F0E1
:101770004009704710B51A4B1A6882B0A2B1002216
:101780001A601B6800934FF080430122154C0099AA
:10179000C3F80823A368627033B10CCB0020A260A9
:1017A0009847A368002BF8D10F4B1A68AAB1002202
:1017B0001A601B6801934FF080430222094C019983
:1017C000C3F8082323690122A27033B10CCB012096
:1017D000226198472369002BF8D102B010BD00BFE9
:1017E00000010040000D002004010040002810B45A
:1017F00018DB00F1604303F561434901C9B283F886
:101800000013C3B24009800000F1604000F5614060
:1018100003F01F0201239340C0F8803103605DF89C
:10182000044B7047C3B2044A03F00F044901224439
:10183000C9B21176E6E700BFFCEC00E02DE9F84FF5
:101840000579224F4FEA850808EB0504E4003E19AC
:1018500096F822E0BEF1000F02D00820BDE8F88F14
:101860003A51C6F808E0736086F825E086F824E06F
:101870008B7B86F827304B7B53BB0B684FF0A04423
:1018800003F5E07340F20C6644F823604B6803F5FF
:10189000E07344F8236091E850000368C3F80845FA
:1018A000C3F80C658C68C3F824452AB10068097B2D
:1018B00040F30730FFF79AFF454407EBC5050123C6
:1018C00085F822300020BDE8F88F00BF140D0020FD
:1018D0000C68DFF86CE24FF0A04304F5E07440F2CE
:1018E0000C6643F824604C6804F5E0744FF0010C7A
:1018F00043F824600E681F2E84BF06F01F0603F510
:1019000040730124B440C3F808454B681F2B8ABFBD
:10191000894C4FF0A04403F01F030CFA03F3C4F802
:1019200008350B68854C4FF0A04603F5E07340F294
:101930000D6946F823904B6803F5E07346F8239051
:101940000426D4F80090334600BF00BF00BF00BF9C
:1019500000BF00BF00BF00BFF1452FD000BF00BFD8
:1019600000BF00BF00BF00BF00BF00BF00BF00BF7F
:1019700000BF00BF00BF00BF00BF00BF00BF00BF6F
:1019800000BF00BF00BF00BF00BF00BF00BF00BF5F
:1019900000BF00BF00BF00BF00BF00BF00BF00BF4F
:1019A00000BF00BF00BF00BF00BF00BF00BF00BF3F
:1019B00000BF00BF00BF00BF00BF00BF013BC3D1DD
:1019C0000024D1F804A0BAF11F0F8ABF5A4B4FF080
:1019D000A0430AF01F0BD3F8103598BFD34623FA63
:1019E0000BF3DB0700F1F7800B681F2B86BF03F0BA
:1019F0001F03DFF844A14FF0A04A0CFA03F3CAF822
:101A00000C35334600BF00BF00BF00BF00BF00BFA2
:101A100000BF00BFF1452FD000BF00BF00BF00BF17
:101A200000BF00BF00BF00BF00BF00BF00BF00BFBE
:101A300000BF00BF00BF00BF00BF00BF00BF00BFAE
:101A400000BF00BF00BF00BF00BF00BF00BF00BF9E
:101A500000BF00BF00BF00BF00BF00BF00BF00BF8E
:101A600000BF00BF00BF00BF00BF00BF00BF00BF7E
:101A700000BF00BF00BF00BF013BC3D10B681F2BDD
:101A800086BF03F01F03DFF8B0A04FF0A04A0CFAA6
:101A900003F3CAF80835334600BF00BF00BF00BFDC
:101AA00000BF00BF00BF00BFF1452FD000BF00BF87
:101AB00000BF00BF00BF00BF00BF00BF00BF00BF2E
:101AC00000BF00BF00BF00BF00BF00BF00BF00BF1E
:101AD00000BF00BF00BF00BF00BF00BF00BF00BF0E
:101AE00000BF00BF00BF00BF00BF00BF00BF00BFFE
:101AF00000BF00BF00BF00BF00BF00BF00BF00BFEE
:101B000000BF00BF00BF00BF00BF00BF013BC3D18B
:101B10000134092C7FF455AF4B681F2B86BF03F0AF
:101B20001F03054E4FF0A04601249C40C6F80C450B
:101B30000423034C06E000BF00030050940900207A
:101B40000024F40000BF00BF00BF00BF00BF00BF03
:101B500000BF00BFA1452FD000BF00BF00BF00BF26
:101B600000BF00BF00BF00BF00BF00BF00BF00BF7D
:101B700000BF00BF00BF00BF00BF00BF00BF00BF6D
:101B800000BF00BF00BF00BF00BF00BF00BF00BF5D
:101B900000BF00BF00BF00BF00BF00BF00BF00BF4D
:101BA00000BF00BF00BF00BF00BF00BF00BF00BF3D
:101BB00000BF00BF00BF00BF013BC3D14C681F2C5A
:101BC00086BF04F01F04064E4FF0A0460123A34039
:101BD000C6F8083551E6002C3FF44FAE53469CE75B
:101BE000000300500379064A016803EB830302EB0C
:101BF000C3030220062283F82200C1F800257047A3
:101C0000140D00202DE9F04F89B005AC9DF8486017
:101C10001546002E02F060464FF000020CBF17463A
:101C20002027B6F1005F62600592A26003D0102009
:101C300009B0BDE8F08F90F804C0DFF84091066865
:101C40004FEA8C0A0AEB0C0E4FF0FF3209EBCE0E76
:101C5000C6F808239EF8242002F0FF083AB1DEF807
:101C60000830C6F80433112009B0BDE8F08F012216
:101C70008EF82420C6F88815C6F80481D6F8042109
:101C80008DF815108DF816300695029294E807002D
:101C9000029CC6F82481D6F8244103940EF10C046A
:101CA000DDF80CB08EF82580C6F8508584E8070072
:101CB000C6F84085C6F84455C6F84835CFB94FF444
:101CC000007240F20223C6F800224FF48271CEF86F
:101CD00008300AEB0C030122DB003262B26059F8D3
:101CE0000300264CA8B1234400209B68C6F80433A7
:101CF0009EE7234B4FF48072C6F80022CEF80830DE
:101D0000C6F84881D6F848310193019B4FF4A4717D
:101D1000DFE71046314402E0D6F824211ABB0B68F5
:101D2000002BF9D0D444D6F8C404C6F8C40409EB97
:101D3000CC09002389F8243000283FF479AF10F053
:101D4000010F14BF4FF40243032348F2012210F0A5
:101D5000020F18BF134610F0040F48F202220CBF06
:101D60001846104664E7C6F82431D6F824310493A7
:101D7000049B30624FF482717061CBE7140D002038
:101D8000000204002DE9F04F87B003AC02F060457B
:101D90001646B5F1005F4FF0000262600392A26048
:101DA00003D0102007B0BDE8F08F90F80480DFF872
:101DB000189107684FEA880A0AEB080E4FEACE0E20
:101DC0004FF0FF3209EB0E0CC7F808239CF82420D3
:101DD00002F0FF053AB1DCF80830C7F804331120EF
:101DE00007B0BDE8F08F4FF0010B8CF824B0C7F8B6
:101DF0008815C7F80451D7F8042100928DF80E30E9
:101E000004968DF80D108DF80CB0009AC7F8245187
:101E100094E80700D7F824410194019CC7F8505575
:101E20000CF10C04C7F84055C7F83465C7F83835CD
:101E30004FF4805640F20223C7F800628CF8255018
:101E4000CCF8083084E80700C7F820B0C7F800B025
:101E500059F80E302BB1DCF80830C7F804332846A7
:101E6000A0E75B4602E0D7F8241119BBD7F804219C
:101E7000002AF8D0D044D7F8C404C7F8C40409EB4A
:101E8000C808002388F8243000288BD010F0010FF8
:101E90000CBF03234FF4024348F2012210F0020F5B
:101EA00018BF134610F0040F48F202220CBF184668
:101EB000104677E7C7F82421D7F824210292029A26
:101EC0003B627B61D2E700BF140D002070B55E4B12
:101ED000D3F824218AB0BAB10022C3F82421D3F860
:101EE00024210592059AD3F804216AB9574A0221A0
:101EF0009068C3F8080391609268C3F80423012234
:101F00001A625A610AB070BD4F4B504CD3F804218D
:101F1000002A30D0002504F10C0207CAC3F804518E
:101F2000D3F80461049694F82350049E0AAE06E99F
:101F30000700002D39D0227B012A7FD0D3F84C1521
:101F40008DF81E10022A75D03F4BD3F84C25D2B223
:101F50003D4B8DF81F200022C3F86021D3F860119B
:101F600002910299C3F85C21D3F85C310393039B7F
:101F700094F8255028E0C3F84821D3F84811227B73
:101F800001910199002A3BD104F10C0207CA94F88F
:101F900025500AAE06E90700FDB94FF0FF32C3F83D
:101FA0000052A560C3F8082317E0C3F86051D3F8C6
:101FB00060210292029AC3F85C51D3F85C3194F824
:101FC00025500393039B45B91F4B00224FF0FF316F
:101FD000C3F80022A260C3F808131B4AD2F8C43425
:101FE000C2F8C4349A071ED501238DF818300DB9F4
:101FF00084F824502368616806A898470AB070BD29
:102000004FF4007040F202214FF0FF32C3F800029B
:10201000A160C3F80823A268C3F8042301229A60D0
:102020001A620AB070BD13F0040318BF02238DF8C2
:102030001830DCE7D3F83C25D2B289E7D3F83C3539
:102040008DF81E3080E700BF00300040140D0020E6
:1020500030B51F4C94F8645083B015B1082003B01C
:1020600030BD4FF0FF33FF22072106202363636357
:10207000A363E36323646364A364E3642365636528
:10208000A365E36523606360A360E360236163612C
:10209000A361E361236284F860306362A36284F821
:1020A0006230E36284F8633084F86120FFF79EFBBE
:1020B000084B094A1D601B68019301984FF00043CB
:1020C0000121284684F86410C2F8043303B030BDFF
:1020D0003C0D00207C61004000600040034B93F801
:1020E0006400003018BF0120704700BF3C0D002085
:1020F0001F288CBF094A4FF0A0424FF00103D2F8CD
:10210000041588BF00F01F0003FA00F020EA010365
:102110000840C2F80835C2F80C05704700030050AB
:10212000F0B5694C251895F93030002B01DB0820FB
:10213000F0BD91F803E09446BEF1000F56D023683D
:10214000013300F0B180082600256B1C5E4F54F867
:102150002320013251D0AB1CB34245D257F8232083
:1021600001324AD0EB1CB3423ED257F82320013251
:1021700043D02B1DB34237D257F8232001323CD035
:102180006B1DB34230D257F82370013735D0AB1DE9
:10219000B34229D254F823204B4F01322DD0EB1DEE
:1021A000B34221D257F82320013226D005F108038B
:1021B000B34219D257F8232001321ED005F109038A
:1021C000B34211D257F82320013216D005F10A0389
:1021D000B34209D257F8237001370ED00B35B54200
:1021E00002D2E36A013307D00420F0BD236A013331
:1021F00061D00C260825A8E70B2326185DB244F809
:1022000023C0324686F83050BEF1000F02D123447D
:1022100083F858008B78D3B91F284A7887BF2B4E94
:1022200000F01F0303464FF0A04603F5E073920051
:1022300046F82320CB78DBB9083D2C44097894F884
:10224000602042EA811284F860201846F0BD1F2801
:1022500087BF1E4B00F01F0202464FF0A04303EB66
:102260008203D3F8002722F00202C3F80027E1E737
:10227000AB0003F1804303F5C0430A78D3F810158F
:1022800021F44F3121F44071C3F8101512040002FB
:1022900002F44031D3F8104500F47C520A43224343
:1022A000C3F810250020F0BD002385F83030C4F8B5
:1022B00000C01D46AEE7082685F830603346C4F8F6
:1022C00020C03546A3E700BF3C0D002000030050AE
:1022D000F0B43A4D2E1882B096F93030072B20DD3D
:1022E0002B4493F858309B09032B45D0012B14BF86
:1022F0004FF440324FF400321F284DD900F01F0038
:102300002F4B03EB8000D0F8003723F44033C0F8A4
:102310000037D0F800371A43C0F8002702B0F0BCED
:102320007047DAB2072AF9D8980000F1804000F52A
:10233000C04003F140029200D0F8104592B202F181
:102340008042002744F0010402F5C042C0F8104565
:102350000197019817600029E0D096F9302055F8D0
:102360002220002ADAD00122164902FA03F3C1F82A
:10237000043302B0F0BC70471F2810D9104BD3F8BB
:10238000103500F01F00C34013F0010F0CBF4FF4D5
:1023900000324FF44032B3E74FF0A043B1E74FF0C3
:1023A000A0421346D2F81025C24012F0010F0CBF14
:1023B0004FF400324FF44032A3E700BF3C0D002041
:1023C00000030050006000401F288ABF054B4FF0FB
:1023D000A04300F01F00D3F8103523FA00F000F0FE
:1023E00001007047000300502DE9F04F89B000252F
:1023F000CE4B039502951A68012A00F04C82CC4B13
:102400001A68012A00F03982CA4B1A68012A00F0C2
:102410002682C94B1A68012A00F01382C74B1A683A
:10242000012A00F00082C64B1A68012A00F0ED81F3
:10243000C44B1A68012A00F0DA81C34B1A68012ADA
:1024400000F0C781C14B1A68012A00F0B18115F074
:10245000FF0F1AD0BE4F01260024A30003F18043D2
:10246000354203F5C0434FEA46060BD0D3F81005BA
:1024700057F82420D3F81015C0F30520C1F301410B
:1024800002B190470134082CE7D1002D02DB09B0DE
:10249000BDE8F08FAE4DDFF8BC824FF0FF330693FE
:1024A000079395F9603004AF00225C1C7A600492B7
:1024B0002E4600F000815FFA83FE2EF0C00008ABCC
:1024C0004FEAD00903EB090C01210EF007031CF8B9
:1024D000082C01FA03F312EA030421D032184FEA60
:1024E0009E1192F9302056F82220002A00F03981FE
:1024F000032900F039811F2800F2068104464FF0BD
:10250000A04A04F5E0791CF8184C5AF829C01C4080
:10251000CCF3014C40F0EC80BCF1030F00F02382BF
:1025200095F96130581C35D0DBB223F0C00008AA01
:102530004FEAD00C02EB0C0E4FF0010903F007023A
:102540001EF8081C09FA02F2114223D006EB00091A
:10255000990999F9309056F82990B9F1000F00F0D7
:102560000981032900F009811F2800F2F5808446C3
:102570004FF0A04A0CF5E07C1EF818BC5AF82CE08D
:102580001BEA020FCEF3014E40F0C380BEF1030FF1
:1025900000F0CE8195F96230591C34D0DBB223F0C3
:1025A000C00008AA4FEAD00C02EB0C0E4FF0010954
:1025B00003F007021EF8081C09FA02F2114222D0A9
:1025C00006EB0009990999F9309056F82990B9F16C
:1025D000000F00F0E380032900F0E3801F2800F2E1
:1025E000828084464FF0A04A0CF5E07C1EF818BCAF
:1025F0005AF82CE01BEA020FCEF3014E68D1BEF16F
:10260000030F00F07A8195F963305A1C38D0DBB2A1
:1026100023F0C00008AA4FEAD00C02EB0C0E4FF0DA
:10262000010903F007021EF8081C09FA02F2114220
:1026300026D006EB0009990999F9309056F82990AF
:10264000B9F1000F00F0A080032900F0A0801F283E
:102650008ABF03F01F0C8446DFF8F8A01EF818BCF0
:1026600098BF4FF0A04A0CF5E07C1BEA020F5AF825
:102670002CE0CEF3014E20D1BEF1030F00F0198102
:10268000002C3FF404AF4FF0A0430299D3F810356B
:10269000D8F81025994203D1039991423FF4F7AE3F
:1026A000029395F960300498059903925C1C06909A
:1026B00007917FF400AF002432E7BEF1020FDFD1B3
:1026C000032900F07681B9F1000FD9D0C847D7E7C8
:1026D000BEF1020F97D1032900F06E81B9F1000F0E
:1026E00091D0C8478FE703F01F0CDFF868A07BE7A5
:1026F000BCF1020FDFD1032900F064810024002A1D
:102700003FF40EAF90470BE70EF01F04DFF844A034
:10271000F7E6BEF1020F7FF43DAF032900F04F81D1
:10272000B9F1000F3FF436AFC84733E7006100400E
:1027300004610040086100400C61004010610040ED
:1027400014610040186100401C6100407C61004041
:102750003C0D00200003005003F01F0CDFF86CA2BA
:1027600008E7032940F0A38017F809401C4307F845
:102770000940C0E603297FF40DAF17F80CA04AEA20
:10278000020A07F80CA0EFE603297FF479AF17F8E7
:102790000CA04AEA020A07F80CA058E703297FF4C4
:1027A00032AF17F80CA04AEA020A07F80CA015E7A6
:1027B00000221A601B6801934FF0A042019BD2F8DF
:1027C0001025824B0292D3F81035039345F0004553
:1027D0003DE67F4AD2F8042316067FF533AE002289
:1027E0001A601B680093009B45F080052AE6784A32
:1027F000D2F8042357067FF520AE00221A601B682A
:102800000093009B45F0400517E6714AD2F8042377
:1028100092067FF50DAE00221A601B680093009BA4
:1028200045F0200504E66A4AD2F80423D1067FF574
:10283000FAAD00221A601B680093009B45F010055A
:10284000F1E5634AD2F8042310077FF5E7AD0022D3
:102850001A601B680093009B45F00805DEE55C4AA2
:10286000D2F8042354077FF5D4AD00221A601B6808
:102870000093009B45F00405CBE5554AD2F80423AC
:1028800096077FF5C1AD00221A601B680093009B7C
:1028900045F00205B8E54E49D1F8041311F00101E5
:1028A00029D01D601B680093009B1546A7E51446C0
:1028B00036E603297FF407AF4FF4003C1F288BBF97
:1028C000424A4FF0A04203F01F03034602EB830E7F
:1028D0000134DEF8002722F44032CEF80027DEF87B
:1028E000002742EA0C02E4B2CEF80027B9F1000F4B
:1028F0007FF4ECAEC7E60D4681E503297FF4EEAE2A
:102900004FF4003C1F2848D803464FF0A04202EB8A
:10291000830E0134DEF8003723F44033CEF800375D
:10292000DEF800274CEA0202E4B2CEF80027D5E632
:1029300003297FF4F5AE4FF4003C1F2831D803463D
:102940004FF0A04202EB830E0134DEF8003723F48F
:102950004033CEF80037DEF800274CEA0202E4B23A
:10296000CEF80027DCE603297FF4C9AE4FF4003926
:102970001F281AD803464FF0A04404EB8303012418
:10298000D3F800C72CF4403CC3F800C7D3F800E7E5
:1029900049EA0E0EC3F800E7B1E603F01F030B4A45
:1029A000B5E703F01F03094ACCE70EF01F03074CFD
:1029B000E3E74FF4403C81E74FF4403CA2E74FF49B
:1029C000403CBAE74FF44039D2E700BF0003005063
:1029D000006000400220FDF775BF00BF2DE9F04701
:1029E0000D460646FDF7ACFF03281ED8012D044610
:1029F0001FD00ED3022D1AD11C4B00EB40041C44F7
:102A0000657895B11A4B1B687BB12846BDE8F04745
:102A100018471848FEF7BAFD1449174A04EB440357
:102A20000B44155D9B789D42EBD0BDE8F087BDE877
:102A3000F087DFF8388047003B1808EB030218F8EE
:102A4000035053782BB9274447440B4BBA781A5597
:102A5000D7E7DFF8289007484A464FF40041FEF7D1
:102A600045FD0028EFD189F80060ECE7200E00203A
:102A7000D40D0020D80D0020D00D0020C40D002062
:102A800010B50078FDF75CFF03280BD8064B00EB70
:102A900040001844407828B1044B1B6813B1BDE8CE
:102AA0001040184710BD00BF200E0020D40D00209C
:102AB000B34B1B68DB0700D4704770B5B14EB24D05
:102AC00033782C78FBB9172C1CD8DFE814F0F10010
:102AD0001401140163007600830096005D00390044
:102AE0002C0039002C00A300A800A800A800A80012
:102AF000A800CE00DE000101460018001800FDF716
:102B0000CBFE2C7070BDA14B1B7800203070002BC9
:102B100000F00581FDF796FE0120FDF793FE0320EE
:102B2000FDF790FECFE7012318463370FDF7CAFE8C
:102B300000224FF480419648BDE87040FEF7D6BCB5
:102B4000012318463370FDF7BDFE002240F6CD414B
:102B50008F48BDE87040FEF7C9BC8C4B1B78002B3A
:102B600000F0FE800020FDF76DFE0120FDF76AFEFB
:102B70000320FDF767FE0020FDF750FE0120FDF762
:102B80004DFE15232B7070BD0020FDF747FE072377
:102B90002B7070BD0020FDF72BFE002800F0D380C5
:102BA0000020FDF74FFE46F2666103232B700022E2
:102BB0007748BDE87040FEF799BC0020FDF718FE8D
:102BC000002800F0C5800020FDF73CFE4FF40031E6
:102BD0000423EBE70020FDF70BFE002800F0BD808A
:102BE0000020FDF72FFE05232B70002241F69A11DD
:102BF0006748BDE87040FEF779BC0020FDF762FE33
:102C000006232B70002240F6CD416148BDE870409C
:102C1000FEF76CBCFDF740FE0C232B7070BD5D48C9
:102C2000FEF7B4FCD4F1110405467BD0002879D11D
:102C3000012C13D0C82303FB04F44FF4FA704FF4B3
:102C400000430021C3FB04014FF47A72002333F0E8
:102C500099FF2A4601464F48FEF748FC0220FDF73F
:102C6000DDFD4A4B01221A7070BD484B1B78002BCA
:102C700079D00020FDF7E6FD0120FDF7E3FD0320FC
:102C8000FDF7E0FD12232B7070BD404B1B78002B2D
:102C90006FD00020FDF7D6FD0120FDF7D3FD032006
:102CA000FDF7D0FD0020FDF7B9FD13232B7070BD9B
:102CB000364B1B78002B59D00020FDF7C3FD0120B7
:102CC000FDF7C0FD0320FDF7BDFD00232B7070BD97
:102CD0002E4B1B78002B4FD00020FDF7B3FD0120B9
:102CE000FDF7B0FD0320FDF7ADFD0120FDF796FDDA
:102CF00014232B7070BD0020FDF77AFDC8B10020B1
:102D0000FDF7A0FD022C4EF2666118BF4FF40031B2
:102D10002C7000221E48BDE87040FEF7E7BBFDF7AF
:102D2000A5FDD0E60220FDF78DFD184B00221A709C
:102D300070BDFDF773FD43F2333341F69A11022C57
:102D400018BF1946E4E7FDF769FD41F69A112CE733
:102D5000FDF764FD43F233313AE7FDF75FFD42E7EB
:102D6000FDF784FD07E7FDF781FD8BE7FDF77EFDAD
:102D7000ABE7FDF77BFD95E7FDF778FDB5E700BF15
:102D8000C80D0020CC0D0020F80D00201C0E0020E6
:102D9000A40D0020FC0D002038B5C44B1B6813F0B7
:102DA000010401D1204638BDC14C23780546E3B962
:102DB000172D00F27881DFE815F00B0131013101A8
:102DC00069007D009100A5005B00350028003500FA
:102DD0002800B300BA00BA00BA00BA00BA00E30093
:102DE000F6001C01420063006300B24B1B78002018
:102DF0002070002B00F02781FDF724FD0120FDF756
:102E000021FD0320FDF71EFDD2E7012318462370A4
:102E1000FDF758FD00224FF48041A748BDE8384037
:102E2000FEF764BB012318462370FDF74BFD00221B
:102E300040F6CD41A048BDE83840FEF757BB9D4B5A
:102E40001B78002B00F020810020FDF7FBFC012007
:102E5000FDF7F8FC0320FDF7F5FC0020FDF7DEFC94
:102E60000120FDF7DBFC954B15221A70002499E731
:102E70000020FDF7D3FC914B07221A70002491E744
:102E8000FDF70AFD8D4B00241D708BE70020FDF738
:102E9000AFFC002800F0E1800020FDF7D3FC46F2F3
:102EA0006661864B844803241C700022BDE83840CC
:102EB000FEF71CBB0020FDF79BFC002800F0DC8027
:102EC0000020FDF7BFFC4FF400317C4B7A4804240E
:102ED0001C700022BDE83840FEF708BB0020FDF75B
:102EE00087FC002800F0CD800020FDF7ABFC734B81
:102EF000714805241C70002241F69A11BDE8384043
:102F0000FEF7F4BA0020FDF7DDFC6C4B6A4806249E
:102F10001C70002240F6CD41BDE83840FEF7E6BA0D
:102F2000FDF7BAFC654B0C221A7000243AE764489E
:102F3000FEF72CFB0446D5F1110000F08780002C31
:102F400040F08480012814D0C82505FB00F54FF41B
:102F500000434FF4FA700021C3FB05014FF47A726D
:102F6000002333F00FFE224601465548FEF7BEFA15
:102F700004460220FDF752FC4E4B01221A7011E765
:102F80004C4B1B78002B00F082800020FDF75AFC90
:102F90000120FDF757FC0320FDF754FC474B12229C
:102FA0001A700024FEE6434B1B78002B75D00020DE
:102FB000FDF748FC0120FDF745FC0320FDF742FC2E
:102FC0000020FDF72BFC3D4B13221A700024E9E68C
:102FD000384B1B78002B5DD00020FDF733FC01201F
:102FE000FDF730FC0320FDF72DFC344B00241C7052
:102FF000D8E6304B1B78002B52D00020FDF722FC86
:103000000120FDF71FFC0320FDF71CFC0120FDF74C
:1030100005FC2A4B14221A700024C3E60020FDF799
:10302000E7FBF8B10020FDF70DFC022D4EF26661C2
:1030300018BF4FF40031214B1F481D700022BDE81E
:103040003840FEF753BAFDF711FCB1E60220FDF758
:10305000F9FB184B00221A70A4E6FDF7DFFB41F6DE
:103060009A111EE7FDF7DAFB43F2333341F69A116A
:10307000022D18BF1946DEE7FDF7D0FB43F23331CE
:1030800023E7FDF7CBFB32E7FDF7F0FBE5E6FDF7C5
:10309000EDFB83E7FDF7EAFBA7E7FDF7E7FB8FE72B
:1030A000FDF7E4FBB2E700247CE600BFC80D00207A
:1030B000CC0D00201C0E0020A40D0020F80D0020D7
:1030C000FC0D0020F0B5204A204B1060044610F0A3
:1030D000020083B0196013D01D4B1E480E210F272C
:1030E00010261125197040F266620421DF709E716E
:1030F0005D72FDF717FDA0B1E3071DD403B0F0BD6D
:10310000E20719D4144A15480021FEF7DDF900281A
:10311000F4D1134A1348012103B0BDE8F040FEF793
:10312000D3B9FDF755FD0028E6D101460E4A0F48F8
:10313000FEF7CAF9E10703D50190FDF7E3FB01981B
:103140000028DFD003B0F0BDC80D0020D40D002052
:10315000200E00200C880300B12A0000088803001C
:10316000D52900002C880300812A00000488030070
:1031700008B51B78802B00D008BD0D4B072201201D
:103180001A70FDF735FB68B10020FDF75BFB0120ED
:10319000FDF758FB002241F69A110648BDE80840A9
:1031A000FEF7A4B9FDF73AFB0120FDF737FBF1E785
:1031B000390E00203C0E0020420700D4704708B5AD
:1031C000084606F01FFB88B1831E022B0A4A06D967
:1031D000062313701846BDE80840FFF7DDBD07233E
:1031E00013701846BDE80840FFF7D6BD024A1070BC
:1031F000BDE80840FFF7D0BD3A0E002008B51C4BD3
:103200001B78032B27D8DFE803F0211207020120E7
:10321000BDE80840FDF702BB0120FDF753FB00228B
:1032200040F6CD411348BDE80840FEF75FB90120E4
:10323000FDF7DEFA80B90120FDF7F0FA41F69A11A8
:1032400000220C48BDE80840FEF750B90120BDE857
:103250000840FDF7F7BA08BD0120FDF7F3FA46F282
:10326000666100220348BDE80840FEF73FB900BF91
:10327000380E00205C0E002008B52C4A1378013B64
:10328000DBB2137083B10120FDF7B2FAA0B9FDF7EC
:10329000C5FA0120FDF7C2FA002241F69A1124482E
:1032A000BDE80840FEF722B9224B1B78032B0DD84E
:1032B000DFE803F0121B2B090020FDF7C3FA012001
:1032C000FDF7C0FAE8E70120FDF7A8FA1A4B1878D5
:1032D000BDE80840FFF760BD0120FDF7B3FA164BCB
:1032E0001878BDE80840FFF757BD0120FDF780FAC8
:1032F000A8B10120FDF7A6FA46F2666100220F4848
:10330000FEF7F4F80028E1D008BD0120FDF7DAFA55
:10331000002240F6CD410948FEF7E8F8F2E7012027
:10332000FDF77CFA41F69A11E8E700BF390E00205C
:103330003C0E0020380E00203A0E00205C0E0020CB
:10334000F8B51A4E1A4B1B4F002421460C22054695
:1033500030461C703C70FCF7F5FF2146164B174AAF
:1033600017483360FEF7B0F8044660B12A461549A5
:10337000284605F061FE98B928460C4905F0EFFD96
:1033800040B92046F8BD01460F4A1048FEF79CF8A8
:103390000446EBE70E4B0F4A0F48E62133F086FD5B
:1033A0000E4B0C4A0C48E52133F080FD2C0E00201A
:1033B000380E00203A0E002071310000FD3100006F
:1033C00030880300B93100007932000034880300EE
:1033D000DC880300248903009488030038880300F4
:1033E000704700BF01490320FDF7E4B96C89030071
:1033F0000378012B0DD008D3022B05D1084B0949C6
:103400001A780320FDF7E4B97047074B01221A70C0
:103410007047034B05491A780320FDF7D9B900BF5F
:103420009D0E0020E48903009C0E0020B889030053
:1034300070B40F4C9DF80C50207F012801D070BC57
:1034400070471646022222775DB90A4A9142F6D1A8
:10345000002BF4D030687168B268F36804340FC48C
:10346000EDE72A460449032070BCFDF7B1B900BF5F
:1034700074090020508903000C8A0300430700D41C
:103480007047F0B508468FB00C4606F0BBF902381D
:10349000022804D8184B1D7F55B10FB0F0BD164A55
:1034A00000239360D3601361137753600FB0F0BDB6
:1034B00003AE2C220127294630461F77FCF742FF36
:1034C000352307A90D48ADF82E308DF8307005F082
:1034D0002CFE20462B460A4C0A4A019669468DF876
:1034E0000850009405F036FD0028D6D00649032088
:1034F000FDF760F9D1E700BF740900202C8A0300B2
:103500005089030031340000408A0300F0B5B5B0A3
:1035100032220D460C210DF10B0307468DF80B20CE
:1035200010A80222ADF80C10012610210493ADF86A
:103530000E6005F0B9FB244910A805F0CFFB03A9E4
:1035400010A805F0C9FB10A805F0CAFB10A9384661
:1035500005F0DBFB88B30446284634F04EF92946D3
:1035600082B2204606F01AF8054648B12A461749A5
:103570000320FDF72DF9204606F008F835B0F0BD20
:1035800029462C2205A8FCF7DDFE114B00950FCB38
:103590000DF1240E8EE80F0041F2336E2B4605AA82
:1035A000384621468DF83860ADF836E005F0B6FBB8
:1035B00005460028DAD135B0F0BD06490320FDF7F5
:1035C000F9F835B0F0BD00BF688A0300D48A030063
:1035D00078090020A08A0300204B21491A684FF483
:1035E000FA6300BF00BF00BF00BF00BF00BF00BF45
:1035F00000BF8A422FD000BF00BF00BF00BF00BF86
:1036000000BF00BF00BF00BF00BF00BF00BF00BFC2
:1036100000BF00BF00BF00BF00BF00BF00BF00BFB2
:1036200000BF00BF00BF00BF00BF00BF00BF00BFA2
:1036300000BF00BF00BF00BF00BF00BF00BF00BF92
:1036400000BF00BF00BF00BF00BF00BF00BF00BF82
:1036500000BF00BF00BF013BC3D1704794090020E9
:103660000024F400F0B585B00022039213461B2716
:103670001A264FF0CC7502246946084A084800977C
:10368000019602958DF80C40FEF7D8F808B1FDF7C9
:10369000B5FA0348FEF7A6FA05B0F0BDF133000015
:1036A000648903002DE9F04184B000251F4C2048B7
:1036B0000095022303AA292125708DF80C508DF85E
:1036C0000D50FEF79FFA50BB23781849002BFBD012
:1036D00000250D700123174A15482921FEF752FBDA
:1036E00000BB2378114F002BFBD0134D002605F1B2
:1036F00078083E70009603232A4629210C48FEF7DD
:1037000081FA48B92378002BFCD0033545453E703B
:10371000F0D104B0BDE8F081FDF770FAF2E7FDF7F3
:103720006DFAD1E7FDF76AFADBE700BF9C0E0020D7
:10373000648903009D0E0020FC0800202DE9F04163
:10374000674E684C88B000254D2335708DF80C50BD
:1037500027468DF80D300095022303AA29216248DF
:10376000FEF750FA002840F0AB802378002BFCD005
:1037700001235B4A5C483D702921FEF703FB0028CA
:1037800040F09B802378002BFCD033783D70D90724
:103790004FF00002DFD5554B00921A889D78ADF8A6
:1037A000182051488DF81A5006AA03232921FEF744
:1037B00029FA002840F0878023784A4A002BFBD062
:1037C00000254F23157035708DF8105090468DF8F8
:1037D00011300095022304AA29214348FEF712FA6A
:1037E000002867D12378002BFCD001233C4A3E48B7
:1037F00088F800502921FEF7C5FA002857D1237810
:10380000002BFCD0337888F800505B074FF000079E
:10381000DFD5374D00976226022305AA29213248B9
:103820002F708DF814708DF81560FEF7EBF90028F5
:1038300052D123782B49002BFBD000260E70012398
:103840002B4A29482921FEF79DFA002841D12378E7
:10385000244A002BFBD000262878167032F0FAFE9E
:103860000022244B244F33F085F833F06BF9C3B2B8
:103870001A4622492B7003203B70FCF7A9FF204B0E
:1038800000961A889D78ADF81C2017488DF81E50B8
:1038900007AA03232921FEF7B5F9B8B92378114AFD
:1038A000002BFBD00023137008B0BDE8F081FDF7BA
:1038B000A5F9A4E7FDF7A2F994E7FDF79FF961E701
:1038C000FDF79CF951E7FDF799F975E7FDF796F9D2
:1038D000E4E7FDF793F9BAE7FDF790F9A9E700BF30
:1038E0009D0E00209C0E0020648903003489030093
:1038F000BECB002000002440BACB0020FC8A03008D
:103900003889030000000000F0B58FB000241425B2
:103910000094022304AA2921AB488DF810408DF8A9
:103920001150FEF76FF9002840F02981A74C237849
:10393000A64D002BFBD000260DF10F0201232921FB
:10394000A1482E70FEF71EFA002840F0338123783C
:103950009E49002BFBD09DF80F209B4822F0380297
:10396000002542F02002009514268DF80F208DF8D6
:1039700022200D70032308AA29218DF820508DF8EC
:103980002160FEF73FF9002840F0118123788F482D
:10399000002BFBD00025009540260570032309AAC3
:1039A000292189488DF824508DF826508DF82560FE
:1039B000FEF728F9002840F0F7802378834D002B8C
:1039C000FBD0834B80481A889B78ADF828200026CE
:1039D00000968DF82A300AAA032329212E70FEF7BB
:1039E00011F9002840F0DD8023787849002BFBD0C6
:1039F000002000903F26087042258DF82C000323FC
:103A00000BAA292170488DF82D608DF82E50FEF7F5
:103A1000F9F8002840F0C28023786C49002BFBD0D5
:103A2000002003250090382608708DF830002B46C2
:103A30000CAA292164488DF832508DF83160FEF7C8
:103A4000E1F8002840F0A7802378604E002BFBD0DF
:103A500000254F2335708DF80F508DF814508DF8D8
:103A600015300095022305AA29215748FEF7CAF808
:103A7000002840F081802378002BFCD001230DF139
:103A80000F02292150483570FEF77CF9002870D1CB
:103A90002378002BFCD09DF80F303570C3F3C203A0
:103AA000042B4FF00007DCD150250097022307AA12
:103AB000292145488DF818708DF819708DF81C7003
:103AC0008DF81D50FEF79EF8002861D123783F4DF8
:103AD000002BFBD00026022306AA29213A482E708B
:103AE000FEF750F9002850D12378384D002BFBD039
:103AF000384B35481A889978ADF83420002600965E
:103B00008DF836100DAA032329212E70FEF77AF8BE
:103B1000002837D123782D4A002BFBD09DF81910AF
:103B20009DF818002C4D2D4C0023137041EA002005
:103B300032F090FD22A3D3E9002332F0F1FD33F0FF
:103B400001F8274B274A284980B2A3FB00039B08B2
:103B500003EB830303EB83039B009BB2A2FB0323D2
:103B60005B091A4603202B802380FCF731FE0FB03F
:103B7000F0BDFDF743F88BE7FDF740F87BE7FDF775
:103B80003DF8D3E6FDF73AF8C4E7FDF737F8ABE7C1
:103B9000FDF734F89AE7FDF731F855E7FDF72EF811
:103BA0003AE7FDF72BF81FE7FDF728F805E7FDF7E3
:103BB00025F8EBE6FDF722F8C9E600BFAFF3008079
:103BC0007B14AE47E17AD43F648903009C0E002049
:103BD0003C89030038890300B8CB0020B6CB002015
:103BE000CDCCCCCC1F85EB51148B0300F0B52DED63
:103BF000028B6C4B6C4C1B886C4887B00025ADF871
:103C000014300095022305AA5C212570FDF7FAFF08
:103C1000002840F0AC802378634D002BFBD006AE2B
:103C2000272306F8083D0027009732462F7001230E
:103C30005C215E482F70FDF7E5FF002840F0AF8063
:103C400023785948002BFBD0002505700DF1130295
:103C500001235C215548FEF795F8002840F09C8030
:103C600023785148002BFBD006AD2A2305F80C3DE4
:103C7000002700972A46077001235C214B48FDF777
:103C8000C1FF002840F0858023784748002BFBD0F7
:103C90000027077001230DF10F025C214348FEF756
:103CA00071F8002872D123783F49002BFBD0002007
:103CB00000902927087001232A465C213B488DF893
:103CC0000C70FDF79FFF00285DD123783648002B4C
:103CD000FBD032460026067001235C213348FEF7F4
:103CE00051F800284CD123782F48002BFBD0002618
:103CF0002A4600962825067001235C212B488DF862
:103D00000C50FDF77FFF002837D12378264D002B7C
:103D1000FBD000260DF1130201235C2123482E70F5
:103D2000FEF730F830BB23781F4D002BFBD09DF8F9
:103D300010209DF80F309DF813001D49120442EA2F
:103D4000036343EA00231B1208EE103ABAEECA8A54
:103D50000023BDEEC88A032018EE102A2B70FCF752
:103D600037FDB8EEC80A07B0BDEC028BF0BDFCF71A
:103D700045FF50E7FCF742FFD5E7FCF73FFFC4E7FC
:103D8000FCF73CFFAFE7FCF739FF9EE7FCF736FF97
:103D900089E7FCF733FF77E7FCF730FF60E7FCF7D4
:103DA0002DFF4DE7408903009C0E0020648903002D
:103DB000248B0300F0B5584B584C1B88584889B0E9
:103DC0000025ADF81C300095022307AA5C21257060
:103DD000FDF718FF002840F08A8023784F4D002B14
:103DE000FBD008AE272306F8083D0027009732468F
:103DF0002F7001235C214A482F70FDF703FF002834
:103E000040F0878023784548002BFBD000250570C3
:103E10000DF11B0201235C214148FDF7B3FF00288F
:103E200074D123783D48002BFBD008AD2C2305F836
:103E30000C3D002700972A46077001235C21384873
:103E4000FDF7E0FE00285ED123783448002BFBD03C
:103E500032460026067001235C213148FDF792FFAF
:103E600000284DD123782D48002BFBD000262A4670
:103E700000962B25067001235C2129488DF81450EB
:103E8000FDF7C0FE002838D12378244D002BFBD04D
:103E900000260DF11B0201235C2121482E70FDF745
:103EA00071FF38BB23781D4A002BFBD09DF818000A
:103EB0009DF81B30DFED1B6A1B4943EA002307EE28
:103EC000903AF8EE677A002387EEA67A1370032003
:103ED000FCEEC77ACDED037ABDF80C402246FCF724
:103EE00077FC07EE904AB8EE670A09B0F0BDFCF720
:103EF00085FE72E7FCF782FED4E7FCF77FFEC3E79E
:103F0000FCF77CFEAEE7FCF779FE9DE7FCF776FE5A
:103F100087E7FCF773FE75E7408903009C0E0020DD
:103F2000648903000000C8423C8B03002DE9F04186
:103F300098B0FFF7E9FCFFF701FCFFF757FEFCEE36
:103F4000C07A374E374F384D384C17EE903A3380A1
:103F5000FFF730FFFCEEC07A102017EE903A3B805E
:103F6000FEF7C6F8324B334A1B88294608A833F0BF
:103F7000EBFB08A92068FFF7C9FA2F4B2F4A1B78E3
:103F8000294608A833F0E0FB08A92068FFF7BEFA2D
:103F90003B882B4A294608A833F0D6FB08A920689D
:103FA000FFF7B4FA3388274A294608A833F0CCFB38
:103FB00008A92068FFF7AAFA94F81280E27C94F826
:103FC00010C0E17B94F80CE0677CA07B667BE37A11
:103FD000A57A42EA082247EA0C2741EA002094F831
:103FE00008C0617A069246EA0E26E27994F806E065
:103FF000059743EA052527796379049041EA0C2166
:1040000042EA0E220191009208A80396029543EA23
:1040100007230D4A282133F065FB18B0BDE8F08175
:10402000BCCB0020B4CB0020588B030074090020C7
:10403000B6CB0020548B0300BACB0020808B03004A
:104040008C8B0300948B0300A08B0300F0B585B02C
:1040500000252A4C2A4800951A2603AA02235C212F
:1040600025708DF80D508DF80C60FDF7CBFD002804
:1040700038D12378214D002BFBD000260096102745
:1040800003AA02235C211E482E708DF80C70FDF7E8
:10409000B9FD00282FD12378184D002BFBD004AA9E
:1040A0000F23002602F8083D5C21009601231448E6
:1040B0002E70FDF7A7FDD8B92378104D002BFBD04B
:1040C000002601230DF10B025C210D482E70FDF737
:1040D00059FE50B92378094A002BFBD000231370F6
:1040E00005B0F0BDFCF78AFDC3E7FCF787FDF1E7FB
:1040F000FCF784FDE0E7FCF781FDCCE79C0E002097
:104100006489030038B5FDF789FA002840F0C480BF
:104110000020FDF7A3FA0020FCF73AFB0021084637
:1041200020F071FA04F076FF0546002800F0AD801B
:1041300000F080FB2A466149284604F07DFF0028F4
:1041400040F09C80284604F0A5FE70B90B2128465B
:1041500005F01BF8002840F0A9804AF6CD3128462A
:1041600005F05EF8002840F09A800121284604F00E
:104170008DFF00287BD10121284605F0B2FB0028E5
:104180006ED14F4C284641F23361256004F0CBFDDF
:10419000024600285DD14B49206804F0D8FDFDF7A8
:1041A000D1F8002852D148490320FEF78BFF0028A0
:1041B00049D12068FFF7C4F800283BD100234FF411
:1041C000F0314FF0A045032007E041FA03F2D20797
:1041D00044BF03F5E07245F822000133202BF4D1EF
:1041E0004FF0A0434FF4F0320021C3F808253748C0
:1041F000C3F80C15364A0121FDF766F900BB002211
:104200004FF400413348FDF771F9B0B9FFF72AFACE
:10421000314B01221A70FFF7DFF9FFF717FFFFF7A5
:10422000DBF9FFF73FFA206805F00AFA206820F072
:10423000FDF9F8E7FCF7E2FCC0E7FCF7DFFCE5E797
:10424000FCF7DCFCDBE7FCF7D9FCB2E7FCF7D6FCBB
:10425000A9E7224B224A23484FF4B27132F026FEDE
:10426000214B224A1F4840F25D1132F01FFE204BC5
:104270001E4A1C484FF4AE7132F018FE1D4B1B4A0B
:1042800018484FF4AA7132F011FE1B4B174A15481B
:104290004FF4A87132F00AFEFCF7B0FC38E7174B78
:1042A000124A104840F2591132F000FE144B0F4AE6
:1042B0000C484FF4AC7132F0F9FD00BF7D340000C2
:1042C00074090020E5330000E1330000108D030085
:1042D0002D3F00007C0E00209D0E0020BC8C0300B2
:1042E00044890300C48B0300848C0300048D030005
:1042F000508C030038880300B88B0300148C030033
:10430000D48B03002DE9F84F4300DFF870A11E188D
:104310000AEBC6068846F16A0129174641D031D317
:10432000022939D1013000EB4000756A4FEAC0091B
:104330004FF0000B1CE0326A641BBC420AEB09011F
:104340002346A2EB050428BF3B469C42486828BF91
:104350001C4628444146224632F013FE336A254467
:104360009D4208BF00253F1BA344A044756215D0A1
:10437000B36AAB4203F1FF34DDD8326A1344013B28
:104380005C1BDAE7B16A726A91429CBF346A091910
:1043900001398A1A974236D94FF0000B5846BDE8CA
:1043A000F88FB16A756AA94227D90139326AC5EB1B
:1043B000010B03440AEBC30ABB45DAF824502F4B28
:1043C00028BFBB46561B0130B34500EB40003BD332
:1043D00003EBC0043246606841462844C6EB0B0537
:1043E00032F0CFFD606808EB06012A4632F0C9FDC5
:1043F000CAF824505846BDE8F88F326A8C18013C40
:10440000C5EB040BD5E703440AEBC30A0130DAF825
:104410002460DAF82040194BA41BA74200EB4000AF
:104420001ED303EBC00522466868414630443E1B5C
:1044300032F0A7FD686808EB0401324632F0A1FDB6
:10444000BB46CAF82460A9E703EBC003414658689D
:104450005A4628445D4432F094FDCAF824509DE742
:1044600003EBC003414658683A4630443E4432F0BC
:1044700088FDBB46CAF8246090E700BFC0CB00208F
:104480002DE9F047304C94F800E082B005468846AC
:1044900017461E46BEF1000F2CD02369DFF8A8A0F6
:1044A000AB424DD94FF000094846CDF80490FDF7D6
:1044B000A3F86DB929460D4404EBC5040A9BE362D9
:1044C0000020019BFDF7A0F8002002B0BDE8F087B6
:1044D0006B1C03EB4303DB0069004A190AEBC202C1
:1044E0004AF803805344C2F828905F601662C2F80D
:1044F0002490E0E70222154B2261154862614FF4D7
:104500000071144AA361A3641023C4F828E0236552
:10451000C4F824E0C4F82CE0C4F858E0C4F85CE027
:10452000C4F854E0E0612162E2640B49E01D33F01D
:1045300047F90A49204633F043F92023A371ACE739
:104540004FF0FF30C1E700BFC0CB0020148D030047
:10455000B00E0020A00E0020208D0300248D03004B
:10456000F8B5114C2378F3B9A362104A63620220B4
:10457000A365E362E36563650D4F0E4D0E4920614F
:1045800010234FF4007623656061A261A264E01DF0
:10459000E7612662E56433F013F90849204633F0F9
:1045A0000FF92023A371F8BDC0CB0020148D0300A8
:1045B000B00E0020A00E0020208D0300248D0300EB
:1045C0000649074A074B9B1A03DD043BC858D050E5
:1045D000FBDC00F013F8FBF741FE00006804040068
:1045E00098080020600B0020FEE7FEE7FEE7FEE7EC
:1045F000FEE7FEE7FEE7FEE7FEE7FEE770B45E4B90
:104600001B68082B19D05D4AD2F8883043F4700338
:10461000C2F88830BFF34F8FBFF36F8F4FF0102376
:10462000D3F80022002A75DBD3F80432002B71DBAB
:10463000534B544A1A6070BC7047534B1968002999
:10464000E1D14FF080404FF08052C0F80C114F4B39
:10465000C0F81011C0F83815D2F80414C3F82015AA
:10466000D2F80814C3F82415D2F80C14C3F828158E
:10467000D2F81014C3F82C15D2F81414C3F830155E
:10468000D2F81814C3F83415D2F81C14C3F8401526
:10469000D2F82014C3F84415D2F82414C3F84815EE
:1046A000D2F82814C3F84C15D2F82C14C3F85015BE
:1046B000D2F83014C3F85415D2F83414C3F8601586
:1046C000D2F83814C3F86415D2F83C14C3F868154E
:1046D000D2F84014C3F86C15D2F844642C4C2D4920
:1046E000C3F870652C4D2560FB23C1F81835D0F850
:1046F000E43ED2F8581204F50F3423F00F0204F50B
:104700006D7401F00F0313434FF40072C0F8E43EE0
:10471000226078E7214B0122C3F80425D3F8002456
:10472000002AFBD04FF0102312221C49C3F80022AC
:10473000D1F80034002BFBD04FF010231222174980
:10474000C3F80422D1F80024144B002AFAD0002226
:10475000C3F80425D3F80024002AFBD0BFF34F8F01
:1047600006490F4BCA6802F4E0621343CB60BFF303
:104770004F8F00BFFDE700BF3001001000ED00E0EB
:10478000940900200090D0033401001000C00040C4
:104790008C56004000F000404881030000E00140DA
:1047A0000400FA050EB410B5A3B025AB044653F8C7
:1047B000042B0193802102A833F0AAF902A833F058
:1047C0001CF8236882B21B6802A92046984723B0D0
:1047D000BDE8104003B07047B0F80636B0F80826C0
:1047E000C3F580618A42CCBFA0F80A16A0F80A2659
:1047F000B0F80A1621B100F2062018441FF0AABF33
:104800007047000010B50A4B0360044600F20C60CC
:1048100000F03AFB0023A4F80432A4F80636A4F80A
:104820000836A4F80A361FF083FF204610BD00BFEB
:104830003C8D030010B5044C01462046FFF7E2FF13
:10484000024B1C6010BD00BFB8100020B01000204B
:1048500010B5B0F80432C2180446D2780A2A06D13C
:10486000013B9BB2A0F80432034400221A71B4F851
:104870000432E218D2780D2A06D1013B9BB2A4F88B
:104880000432234400221A7104F20C602346B4F867
:104890000422211D03F024F90020A4F8040210BD15
:1048A0002DE9F8432A4FDFF8AC80DFF8AC900446DE
:1048B0008E180D46B542294648D20B780A2B05F1D1
:1048C000010519D014D8082B2CD0B4F80432B3F554
:1048D000007FEFDA236801221B6820469847B4F86E
:1048E00004325A1CA4F8042215F8012C23442BE0AE
:1048F0000D2B01D07F2BE7E7236802221B68394686
:1049000020469847B4F804322BB1234400221A7190
:104910002046FFF79DFF236802221B684146204680
:104920009847C7E7B4F80432002BC3D023680322AA
:104930001B68494620469847B4F80432013B9BB2B5
:10494000A4F80432002223441A71B3E7BDE8F883C7
:10495000318D03002F8D03002C8D0300024B0A467E
:1049600001461868FFF79CBFB0100020B0F80A3667
:104970000BB9FFF731BF704770B5B0F80846C4F502
:104980008064A4B29442A8BF14460D466B1A9C42A0
:104990000FDDB0F80826B0F8063615F8016B1344A1
:1049A000C3F309030344013283F80662A0F8082622
:1049B000ECE7FFF7DBFF204670BDB0F80A16B0F851
:1049C00006260A44C2F30902A0F80626B0F8082613
:1049D000521AA0F808260022A0F80A26FFF7FCBE0B
:1049E000014B1868FFF7E9BFB0100020F8B5074E7B
:1049F000074D07460024786BA259036829465B6877
:104A00000C349847B4F53D7FF5D1F8BD7497030099
:104A1000C89F0300D0F82C0104F02FBBD0F82C0164
:104A200004F029BB70B5456B2B680446D0F82C0107
:104A30005E6804F0F3FE054902462846B047606B05
:104A400003490368BDE870405B681847CC8E0300DB
:104A5000EE8F030070B5446B0B46216818464D6815
:104A6000114622F0B2FB2B46024602492046BDE821
:104A700070401847C89F0300406B024903685B6899
:104A8000184700BFEE8F030030B504468BB001A974
:104A9000D0F82C0104F08BFD606BBDF80420036896
:104AA0002B495B689847606BBDF80620036829496D
:104AB0005B689847606BBDF80820036826495D680D
:104AC000BDF80A30A847606BBDF80C200368234985
:104AD0005D68BDF80E30A847606BBDF81020036814
:104AE0001F495D68BDF81230A847606BBDF81420FF
:104AF00003681C495D68BDF81630A847606BBDF8B7
:104B00001820036818495D68BDF81A30A847606B23
:104B1000BDF81C20036815495D68BDF81E30A84724
:104B2000606BBDF82020036811495D68BDF8223034
:104B3000A847606BBDF8242003680E495D68BDF886
:104B40002630A8472046FFF797FF0BB030BD00BFC7
:104B500008950300149503001F9503003195030089
:104B600043950300509503005D9503006A9503008B
:104B70007795030085950300F0B5224E8FB004466B
:104B8000002509AAE9B2D4F82C0104F08AFF002814
:104B900033D19DF83630DB072DD5606BBDF834106E
:104BA00007680691BDF83210BDF82630BDF8242004
:104BB00049BA89B20591BDF8301049BA89B2049159
:104BC000BDF82E1049BA89B20391BDF82C1049BA2C
:104BD00089B20291BDF82A1049BA89B20191BDF893
:104BE000281049BA89B200915BBA52BA7F689BB269
:104BF00092B23146B8470135C3E72046FFF73CFF84
:104C00000FB0F0BD2C94030038B5044604F056FEF6
:104C1000636B05491A68556802461846A84720463E
:104C2000BDE83840FFF728BFC89F030070B50446B1
:104C300059B9406B664903685B689847606B654982
:104C40000368BDE870405B6818476349106832F03C
:104C5000ADFD002840F0BB80D4F82C0104F09BFB94
:104C60000546606B2A6803685C495B689847606B1F
:104C70006A6803685A495B689847606BAA6803686A
:104C800058495B689847606BEA68036856495B68F7
:104C90009847606B2A69036854495B689847606B62
:104CA0006A69036852495B689847606BAA69036840
:104CB00050495B689847606BEA6903684E495B68D6
:104CC0009847606B2A6A03684C495B689847606B39
:104CD0006A6A03684A495B689847606BAA6A036816
:104CE00048495B689847606BEA6A036846495B68B5
:104CF0009847606B2A6B036844495B689847606B10
:104D0000AA6B036842495B689847606BEA6B03686B
:104D100040495B689847606B2A6C03683E495B6852
:104D20009847606B6A6C03683C495B689847606BA6
:104D3000AA6C03683A495B689847606BEA6C036841
:104D400038495B689847606B2A6D036836495B6831
:104D50009847606B6A6D036834495B689847606B7D
:104D6000AA6D036832495B689847606BEA6D036817
:104D700030495B689847606B2A6E03682E495B6810
:104D80009847606B6A6E03682C495B689847606B54
:104D9000AA6E03682A495B689847606BEA6E0368ED
:104DA00028495B689847606B2A6F036826495B68EF
:104DB0009847606B6A6F036824495B689847606B2B
:104DC000AA6F036822495B68BDE87040184770BD50
:104DD000E8900300EE8F0300EE900300F2900300D2
:104DE00000910300149103002A91030043910300F2
:104DF0005591030070910300819103009691030087
:104E0000A9910300C3910300D5910300E79103002A
:104E1000FA910300089203001C92030032920300EF
:104E200043920300589203006B92030085920300A3
:104E300097920300B5920300D2920300E992030017
:104E400000930300219303003F9303005293030058
:104E50006593030010B50446D0F82C0104F07DFDE5
:104E6000636B1A68526838B1044918469047204667
:104E7000BDE81040FFF700BE0149F6E77694030055
:104E80007D94030000BA704770B5044600250E46B5
:104E90002063294645632C223830FBF753FA082358
:104EA000A4F864300123A4F866304FF47A73A36643
:104EB00006F501433833E366174B236704F16C03AF
:104EC000E36729466467A56784F8EC50C4F82C6151
:104ED000602204F18000FBF735FA22460F49304684
:104EE00004F0AAF82246D4F82C010D4904F0EAFC9B
:104EF0000C4BC4F8E03004F1E001C4F8E440D4F80D
:104F00002C0104F02CF83E22294604F1ED00FBF7B9
:104F100019FA204670BD00BF51730000057C0000E7
:104F2000757C00000D7200002DE9F04107469046A7
:104F30000C4632F062FC3D1800F001060130B8EB7F
:104F4000500F12D3384621460022854221D910F84D
:104F5000013BA3F14107052F0BD8373B1343DBB2CD
:104F60009EB10B7000260131EEE74FF0FF30BDE837
:104F7000F081A3F16107052F01D8573BEEE7303BE5
:104F8000DBB2092BF1D81343EAE71B01DAB20126A1
:104F9000DBE7081BBDE8F08170B50C4619B9BDE828
:104FA0007040FFF769BD456B2B6808465E6805F0E9
:104FB00021FE22460346B44628460249BDE8704019
:104FC000604700BFBE9F030070B505460E46A9B9F5
:104FD000D0F82C0104F09CFC0446686B03685B6805
:104FE00044B111499847304601462846BDE8704013
:104FF000FFF7D2BF0D4998472046F5E714680C49E2
:10500000204632F0D3FB28B90121D5F82C0104F059
:1050100099FCE9E70749204632F0C8FB0146002821
:10502000F3D00720E0E700BF769403007D940300EF
:10503000E8AC0300D8AC030010B5044603F098FDBB
:1050400001462046BDE81040FFF7A6BF10B5436BF0
:105050000446D0F82C0103F073FB01462046BDE85E
:105060001040FFF799BF000070B5054671B9D0F840
:105070002C0104F01DF80446686B03685B681CB1E2
:105080000F49984700200CE00E49FAE714680E49D2
:10509000204632F08BFB50B90121D5F82C0103F0EA
:1050A000F5FF01462846BDE87040FFF775BF074988
:1050B000204632F07BFB01460028E3D1EDE700BF3C
:1050C0004B940300509403001FC80300579403003F
:1050D00037B504466946D0F82C0104F097FB054625
:1050E00008BB606B009A036812495B689847606B65
:1050F0009DF80420036810495B689847606B9DF831
:10510000052003680D495B689847606B9DF8062091
:1051100003680B495B689847606B9DF8072003683C
:1051200008495B68984729462046FFF735FF03B0DA
:1051300030BD00BF9A950300AD950300C4950300F0
:10514000BD950300D7950300F0B5134685B004461E
:10515000D9B9D0F82C01154F04F0ABFC461E00F174
:105160000F05606B16F8012F036839465B68984796
:10517000B542F6D1606B0E4903685B689847002121
:105180002046FFF709FF05B0F0BD102269461868F8
:10519000FFF7CAFE102806D16946D4F82C0104F0A6
:1051A0008DFC0146ECE70621EAE700BF93B8030057
:1051B000ED9F03002DE9F341002304468DF80430F0
:1051C000002933D1D0F82C0104F07DFA8DF80400C9
:1051D000C00704D5606B444903685B6898479DF835
:1051E0000430990704D5606B404903685B689847B1
:1051F0009DF804305A0704D5606B3D4903685B682D
:1052000098479DF804301B0704D5606B3949036843
:105210005B689847606B384903685B689847002172
:10522000204602B0BDE8F041FFF7B6BE16684FF069
:10523000000EF446F0467746013E194618461D46D4
:1052400016F8012F5AB36E2A26D018D8642A20D017
:105250002DB19DF804306CF300038DF8043028B1B3
:105260009DF804306EF341038DF8043029B19DF8A8
:10527000043067F382038DF804300621D0E7722AE8
:1052800004D0732AE4D101208646D9E70125AC4633
:10529000D6E701210F46D3E701239846D0E72DB189
:1052A0009DF804206CF300028DF8042028B19DF8CD
:1052B00004206EF341028DF8042029B19DF80420EA
:1052C00067F382028DF804202BB19DF8043068F357
:1052D000C3038DF804309DF80410D4F82C0104F0B9
:1052E0001AFA01469CE700BF2AA80300D4C30300B2
:1052F00000DD03000DA80300ED9F030010B5044678
:10530000D0F82C0103F0C1FD01462046BDE8104055
:10531000FFF742BE2DE9F04186B001AF04463946A1
:10532000D0F82C0104F07FFA0646002831D1606BDA
:105330001B490368DFF880805B6898473546606BDF
:105340007A5D036841465B6801359847082DF6D1C0
:10535000606B144903685B689847606BBDF80C206C
:10536000036811495B689847606B9DF811200368DA
:105370000E495B689847606B9DF8122003680C49E2
:105380005B689847606B9DF81320036809495B6868
:10539000984731462046FFF7FFFD06B0BDE8F08193
:1053A000A18F0300ED9F0300AC8F0300B78F0300B4
:1053B000CD8F0300E48F030093B8030038B5044693
:1053C00071B9D0F82C0103F0D3FF20B1D4F82C012F
:1053D0001FF036FB48BB606B174903685B6828E029
:1053E00015681649284632F0E1F980B91449D4F815
:1053F0002C01224603F0B7FF0121D4F82C0103F061
:10540000BCFF01462046BDE83840FFF7C5BD284631
:105410000C4932F0CBF9054660B901460246D4F892
:105420002C0103F0A0FF2946E7E7606B06490368FB
:105430005B6898470020E4E7569603003D9603001A
:1054400085740000449603004C96030070B5054631
:105450000E46A1B9D0F82C0104F0A0FA0446686BFE
:1054600003685B6844B11149984734462146284691
:10547000BDE87040FFF790BD0D499847F6E7166804
:105480000C49304632F092F9044628B90121D5F88A
:105490002C0104F088FAE9E70749304632F086F932
:1054A000044608B90146F2E70624DFE74C960300FC
:1054B000569603003D9603004496030038B5044613
:1054C00000292BD1D0F82C0104F09CF9636B04283F
:1054D00020D8DFE800F0030F13171B001A682549D6
:1054E000526818469047002001462046BDE83840E3
:1054F000FFF752BD1A6820495268F2E71A681F493F
:105500005268EEE71A681E495268EAE71A681D49B0
:105510005268E6E71A681C495268E2E715681B49B9
:10552000284632F043F920B9D4F82C0104F05FF991
:10553000DAE71749284632F039F920B9D4F82C01B6
:1055400004F05AF9D0E71349284632F02FF920B970
:10555000D4F82C0104F065FAC6E70F49284632F06A
:1055600025F920B9D4F82C0104F06DFABCE7062027
:10557000BAE700BF028F03000D8F0300188F0300EE
:10558000208F0300298F0300328F0300428F030016
:105590004B8F0300518F0300588F0300002938B54B
:1055A000044617DD15680C49284632F0FFF850B95B
:1055B0000121D4F82C0104F094F901462046BDE8FD
:1055C0003840FFF7E9BC0549284632F0EFF80146BC
:1055D0000028EED00620F0E7719A0300E390030064
:1055E000F0B50F1E87B00546164628DD146817492A
:1055F000204632F0DBF8B8B9012F20D0144B0393CA
:10560000144B0193022F144B00934FF000040CBF76
:105610000246B26804950294104B7168D5F82C01CB
:1056200003F08EFD00210BE00D49204632F0BEF85C
:105630000028F7D1D5F82C0103F08AFDF2E7062106
:10564000284607B0BDE8F040FFF7A6BC719A0300FA
:10565000D57A0000888F0300988F03007D8F0300A8
:10566000E3900300F0B5134685B00446D9B9D0F8ED
:105670002C01154F04F066F8461E00F10F05606B13
:1056800016F8012F036839465B689847B542F6D192
:10569000606B0E4903685B68984700212046FFF75E
:1056A0007BFC05B0F0BD102269461868FFF73CFC92
:1056B000102806D16946D4F82C0104F048F80146B8
:1056C000ECE70621EAE700BF93B80300ED9F030073
:1056D000F8B505460C4689B9D0F82C0104F056F807
:1056E0006E6B0A49336810225F6803463046B8473C
:1056F00021462846BDE8F840FFF74EBC1168D0F8B7
:105700002C0104F047F80146F3E700BF369603008A
:105710002DE9F041084E07460D4690460C46631BA6
:10572000984507DD786B14F8012B036831465B68F8
:105730009847F4E7BDE8F08193B803002DE9F04104
:10574000B1F1000886B0054617462CDCD0F82C01D4
:1057500003F0E3FD6B6B1A68526898B13C493D4E0B
:1057600018469047002403AAE1B2D5F82C0103F0B3
:10577000C8FD48B1002421462846FFF70DFC06B0BD
:10578000BDE8F0813449EAE79DF814304BB103A934
:1057900028460822FFF7BCFF686B036831465B6848
:1057A00098470134DFE716682C49304631F0FEFF98
:1057B000B8B9B8F1010F12D0082201A97868FFF733
:1057C000B3FB08280BD101A9D5F82C0103F084FD07
:1057D00001A9D5F82C0103F07FFD0028CAD00624CA
:1057E000C9E71F49304631F0E1FF044620B9D5F83A
:1057F0002C0103F081FDBEE71A49304631F0D6FF97
:10580000044628B90146D5F82C0103F082FDB2E721
:105810001549304631F0CAFF044608B90121F2E7C4
:105820001249304631F0C2FF04460028A2D1B8F137
:10583000010FD4D0082201A97868FFF775FB08286A
:10584000CDD101A9D5F82C0103F051FD93E700BF9C
:105850004C960300ED9F0300569603005C940300F2
:1058600060940300449603003D9603006694030091
:1058700037B505460C46A1B96946D0F82C0103F0AE
:10588000BBFC082269462846FFF742FF686B0649C1
:1058900003685B68984721462846FFF77DFB03B005
:1058A00030BD0621F8E700BFED9F030037B5054680
:1058B0000C46A1B96946D0F82C0103F09FFC0822E0
:1058C00069462846FFF724FF686B064903685B6852
:1058D000984721462846FFF75FFB03B030BD0621FD
:1058E000F8E700BFED9F03002DE9F041B1F100089A
:1058F00086B00546174639DCD0F82C0103F0E8FCE9
:105900006B6B1A685268A0B14A494B4E4B4F184610
:105910009047002403AAE1B2D5F82C0103F0CCFC97
:1059200048B1002421462846FFF736FB06B0BDE803
:10593000F0814349E9E79DF81530DA0714D50822CC
:1059400003A92846FFF7E4FE9DF815309B0706D50E
:10595000686B9DF91420036839465B689847686B4B
:10596000036831465B6898470134D3E716683549C8
:10597000304631F01BFF044630BBB8F1010F16D0A2
:10598000082201A97868FFF7CFFA08280FD1B8F1EB
:10599000020F0ED022462146B86831F0DFFF01A980
:1059A00042B2D5F82C0103F06BFC0028B9D00624D4
:1059B000B8E701A9D5F82C0103F057FC01A9D5F8E7
:1059C0002C0103F052FCF0E71F49304631F0EEFEA7
:1059D000044620B9D5F82C0103F069FCA2E71B4965
:1059E000304631F0E3FE044628B90146D5F82C01D3
:1059F00003F06AFC96E71649304631F0D7FE0446BC
:105A000008B90121F2E71349304631F0CFFE0446D0
:105A1000002886D1B8F1010FC9D0082201A9786801
:105A2000FFF782FA0828C2D101A9D5F82C0103F0AA
:105A300039FC77E74C960300ED9F0300FEDC030082
:105A4000569603005C9403006094030044960300A0
:105A50003D9603006694030037B5134605460C4691
:105A600099B9D0F82C0103F0ACFB08220146284676
:105A7000FFF74EFE686B0D4903685B689847214647
:105A80002846FFF789FA03B030BD08226946186836
:105A9000FFF74AFA002801DA0621F1E76946D5F84E
:105AA0002C0103F092FB0146EAE700BFED9F0300E3
:105AB00037B5134605460C4699B9D0F82C0103F0CA
:105AC000CEFD082201462846FFF722FE686B0D49ED
:105AD00003685B68984721462846FFF75DFA03B0E4
