:10000000000004205D3200008532000087320000CD
:10001000893200008B3200008D32000000000000A9
:100020000000000000000000000000008F3200000F
:100030009132000000000000933200009532000071
:10004000751700008D460200313402003D18000093
:100050009732000097320000291D000097320000FF
:10006000973200009732000097320000973200006C
:100070009732000081390200973200009732000069
:1000800097320000590C00009732000097320000B0
:10009000F90C000097320000973200009732000000
:1000A000973200009732000097320000973200002C
:1000B00097320000973200000000000000000000AE
:1000C000973200009732000097320000973200000C
:1000D0004931020097320000973200009732000049
:1000E00097320000973200009732000097320000EC
:1000F0000000000097320000000000000000000037
:1001000000000000000000000000000000000000EF
:1001100000000000000000000000000000000000DF
:1001200000000000000000000000000000000000CF
:1001300000000000000000000000000000000000BF
:1001400000000000000000000000000000000000AF
:10015000000000000000000000000000000000009F
:10016000000000000000000000000000000000008F
:10017000000000000000000000000000000000007F
:10018000000000000000000000000000000000006F
:10019000000000000000000000000000000000005F
:1001A000000000000000000000000000000000004F
:1001B000000000000000000000000000000000003F
:1001C000000000000000000000000000000000002F
:1001D000000000000000000000000000000000001F
:1001E000000000000000000000000000000000000F
:1001F00000000000000000000000000000000000FF
:1002000010B5054C237833B9044B13B10448AFF350
:1002100000800123237010BDE80A002000000000C8
:100220000CE70300084B10B51BB108490848AFF3B1
:1002300000800848036803B910BD074B002BFBD0B2
:10024000BDE81040184700BF00000000EC0A002085
:100250000CE70300E00A002000000000154B002B13
:1002600008BF134B9D46A3F5803A00218B460F46ED
:100270001348144A121A00F065F80F4B002B00D0F7
:1002800098470E4B002B00D0984700200021040017
:100290000D000D48002802D00C48AFF3008000F09C
:1002A0002BF82000290002F0B1FD00F011F800BF8A
:1002B0000000080000000420000000000000000012
:1002C000E80A002064E400200000000000000000B4
:1002D00008B5074B044613B10021AFF30080054B6E
:1002E0001868836A03B19847204600F033F800BFCE
:1002F00000000000346C030070B50E4B0E4CE41A85
:10030000A41000251E46A54204D056F82530984773
:100310000135F8E736F082FC084C094BE41AA410CA
:1003200000251E46A54204D056F8253098470135D1
:10033000F8E770BDD80A0020D80A0020DC0A0020A7
:10034000D80A002002440346934202D003F8011B5E
:10035000FAE77047FEE700BFF0B51746C7B01C4686
:10036000B9B106AE0B68604A30464FF4807135F083
:100370001BFC00280ADB4C9B0546062B00F2B280D2
:10038000DFE803F012323B4653637500002047B0AC
:10039000F0BD4C9B062B00F2A380DFE803F0048B3A
:1003A00090957C8186000025384635F064FC431921
:1003B000FF2B044640F28D80002CE7DB2C44B4F583
:1003C000807FE3D80A27002506AE22467119002057
:1003D00002F0E6FD0544241A08B9013F01D0002CC3
:1003E000F3D1012047B0F0BDC0F5807123683A46D3
:1003F000701935F0D9FB0446DEE7C0F580716268FC
:100400002368009270193A4635F0CEFB0446D3E7D4
:10041000C0F58071A2682368646800940192701925
:100420003A4635F0C1FB0446C6E7C0F58071E26884
:100430002368D4F808E0646802928DE810403A46D8
:10044000701935F0B1FB0446B6E7C0F5807120693C
:10045000E26823680390D4F808E0646802928DE8AB
:1004600010403A46701935F09FFB0446A4E7C0F5EA
:1004700080716269206923680492E2680390D4F86D
:1004800008E0646802928DE810403A46701935F031
:100490008BFB044690E74FF48071002506AEC6E75B
:1004A0004FF48071002506AED1E74FF4807100252E
:1004B00006AEDEE74FF48071002506AE96E74FF4F6
:1004C0008071002506AE9AE74FF48071002506AED4
:1004D000A0E706AE39467019224634F0B4FF6BE748
:1004E00000246FE7002469E7386C03002DE9F04F22
:1004F0001446C7B01D46002900F02381002B00F0F0
:1005000004810A2302934FF0000B06AF519B539ACC
:10051000134420261C4602990BEB0103049331334C
:10052000FB18039307EB0B031A460193002965D0D0
:10053000534203F003038B4228BF0B46062900F207
:10054000DB800B46019907F80B600A46012B02F18C
:10055000010200F0CF80022B4E7001F1020200F088
:10056000C980032B8E7001F1030200F0C3800A469C
:10057000042BCE7002F1040200F0BC80062B0E7139
:1005800001F1050240F0BE804E718A1D9846029925
:1005900099422ED00298C3EB0009A9F1040100F1A1
:1005A000FF3E8908C3EB0E0E0131BEF1020F4FEA88
:1005B000810C12D95B444FF0203E012907EB030B5D
:1005C00047F803E005D00229CBF804E001D0CBF8CE
:1005D00008E0E1456244E0440BD00299167008F14E
:1005E00001038B4205D208F102008842567000D206
:1005F0009670019B029A134401931A46039B059738
:1006000002F1330A274602F1030B544603F10109B4
:10061000DDF844A10DE00BF8036C0BF8026C0BF84D
:10062000016C0BF1030BA34509F8016C09F10109F9
:100630002FD0AF42EFD9AA4556D9509B13F8058069
:100640000BF8016C4FEA28105FFA80FE092808F0C9
:100650000F00D4BF0EF1300E0EF1370E092894BFF3
:10066000303037300BF803EC0BF8020C34F0C0FEDE
:1006700040440BF1030B407810F0970F08BF4FF088
:100680002E08A34509F8018C05F1010509F10109BE
:10069000CFD1049B039903F1430A019B3C460D22F1
:1006A0004FF00A0B059F0A7481F811B0A14683F838
:1006B00030604FF000085446224607EB0801002046
:1006C00002F06EFC8044241A10B9BBF1010B01D07A
:1006D000002CF1D14D454C464FF0000BFFF41BAF01
:1006E000284647B0BDE8F08FCAEB0500529B13F8CF
:1006F0000080A5E798464AE7002B7FF423AF019AD4
:10070000984647E74FF0050841E706AF0B68114AE6
:1007100038464FF4807135F047FA0028E0DB0A23B1
:1007200006460293204635F0A6FAC22828BFC2200A
:10073000834602462146B81934F085FE0025B344AD
:10074000E4E61BB902952E4606AFEBE702918B4615
:1007500006AFDBE6386C030070B5074D074E2B780B
:1007600013B13378834205D0044602F047FD0123DC
:1007700034702B70002070BD050B0020040B00208E
:10078000004870475903000000487047ED0400001E
:1007900038B50120FFF7E0FF044638B9FFF7F0FF56
:1007A0000546FFF7F1FF024B5D619861204638BDB9
:1007B000080B002010B5054C82B000230A4664697E
:1007C00000931946A04702B010BD00BF080B0020DF
:1007D00030B585B004AB054C43F8042D01250A461D
:1007E000646900950021A04705B030BD080B0020CA
:1007F000084B185C1F288ABF074B4FF0A04300F03E
:100800001F00D3F8043523FA00F000F0010080F057
:1008100001007047406C030000030050074B1B5C55
:100820001F2B86BF03F01F0305494FF0A041012293
:1008300002FA03F3C1F80C35704700BF406C0300A7
:1008400000030050074B1B5C1F2B86BF03F01F03E8
:1008500005494FF0A041012202FA03F3C1F808351F
:10086000704700BF406C0300000300504FF0A043EE
:1008700010B44FF480404FF400544FF400414FF453
:100880008032C3F80845C3F80805C3F80815C3F853
:1008900008255DF8044B70474FF0A04310B44FF4A7
:1008A00080404FF400544FF400414FF48032C3F8BD
:1008B0000C45C3F80C05C3F80C15C3F80C255DF8FE
:1008C000044B70470D4B10B4195C1F298CBF0C48AA
:1008D0004FF0A0404FF00102D0F8044588BF01F06E
:1008E0001F0102FA01F323EA04022340C0F808259D
:1008F000C0F80C355DF8044B704700BF406C030036
:100900000003005030B44FF0A04303224FF40055D1
:100910004FF480444FF400404FF48031C3F8342743
:10092000C3F83827C3F83C27C3F84027C3F8085555
:10093000C3F80845C3F80805C3F8081530BC70476C
:100940000B2809D00C2809D0182809D019280CBF69
:1009500003204FF0FF3070470020704701207047A0
:1009600002207047454B1978002900F085802DE959
:10097000F04F002487B001258E4603E00134E4B235
:10098000744560D23E4B27B21E6816F83700A0F1BE
:10099000200305FA03F93B4BC0F12001D3E9002302
:1009A00025FA01F149EA010905FA00F808EA020A04
:1009B00009EA030B5AEA0B0C06EBC701DED00591DE
:1009C000304922EA080223EA0903C1E9002301F0C1
:1009D0009BF916F837E0AEF1200205FA02F2019217
:1009E0000199CEF12003C6B225FA03F3AEF120023D
:1009F000194306FA02F30393019105FA0EF10091EF
:100A0000CEF120000399204B26FA00F00143039118
:100A100006FA0EF1D3E900230291DDE9000110404E
:100A2000194002460B46DDE902018B4208BF8242B3
:100A30004FF00007059909D0104B013493F800E0FE
:100A4000E4B274459ED307B0BDE8F08FD1F804A09E
:100A5000BAF1000FF0D04A78A2F101020023B2FAF5
:100A600082F2BB424FEA521208BFB24270460CBF3C
:100A700001210021D047DFE7704700BF2C0B002089
:100A8000280B0020580B0020500B00202DE9F843C4
:100A90000646204800F07AFDD0B91F4F0123A6F189
:100AA000200103FA01F5C6F12002D7E9000123FA7B
:100AB00002F2154303FA06F404EA000205EA010310
:100AC000134307D020EA040421EA0505C7E90045DD
:100AD000BDE8F883304601F017F9104ED6E90089D9
:100AE00098B148EA040849EA0509D7E90023144304
:100AF0001D43C6E90089C7E90045094B0548196847
:100B00000022BDE8F84300F0F1BC28EA040829EA15
:100B10000509EAE7300B0020580B0020500B00209D
:100B2000240B0020042A01D807207047F0B583B0B9
:100B30000F460546164600F089FF002833D01C4CAE
:100B40001C4A1D4B1D481E49256017707C1E002243
:100B50001E600023C0E90023C1E90023E4B2E7B12D
:100B60000327002602E0DBB2BCB11C4623B205EB32
:100B7000C30215F833009378124A8DF8053001A9A5
:100B80008DF804708DF806608DF8076000F068FF3E
:100B9000631E0028E7D003B0F0BD0B4A0B480021CC
:100BA00000F092FCF7E700F00BFF0028C7D0F2E757
:100BB000280B00202C0B0020240B0020500B0020C1
:100BC000580B00208D0A000065090000446C0300EA
:100BD00070B5084D2B785BB1074E002433680121B6
:100BE00013F8340001F014F82B780134A342F5D83F
:100BF000002070BD2C0B0020280B002000B585B014
:100C000000230390194601AA44F20100ADF8043014
:100C1000029300F003F805B05DF804FB08B50A493B
:100C20000120FFF7C7FD09490320FFF7C3FDBFF30C
:100C30004F8F0749074BCA6802F4E0621343CB6049
:100C4000BFF34F8F00BFFDE7486C0300586C0300F3
:100C500000ED00E00400FA05F8B5204A204B00251D
:100C6000C2F84051C2F84451C2F84851C2F84C5140
:100C7000C2F80051C2F804511B6813B31949D2F8E5
:100C800004250C68141B1A6824F07F44A2422F46E6
:100C900009D8197CDE69A41A154499B91EB13346E6
:100CA0001A68A242F5D9104B10491A780B789A426B
:100CB0000DD00F490F4A41F823504FF48013C2F86A
:100CC0000031F8BD1F745A6998699047E6E7531CD4
:100CD000DBB2022B08BF00230B70EAE700100140D3
:100CE000640B0020600B0020680B0020690B0020C3
:100CF000780C002000E100E02DE9F04F884A894996
:100D00001378097899428BB037D00133DBB2022BCC
:100D100008BF002384491370844A0E68029152F878
:100D20002300834905910B6802993218002522F0AF
:100D30007F420A602C462946AE46ABB11A68824211
:100D400000F2E681DD68C3F800E0801A1444DA6935
:100D500035B1371927F07F47D9619D605F6019462B
:100D600013460125002BE9D1002D40F0DC82002341
:100D7000069301230893069A08E06D4B05931B68C0
:100D8000694A02920021069308911A46694BDFF8DE
:100D9000AC811B780393059B1B681C46029B1F6854
:100DA0000023BA460F460993C3460793994618464F
:100DB0004FF0010E0193A4463FB37D68BE683946EB
:100DC000FF695D4BCAEB050424F07F449C423CD88C
:100DD000A3190B604860886081F810E0C861002AA0
:100DE00068D015689D4249D2164603E025689D42A9
:100DF00034D22646F4695B1B002CF7D1CC610B6022
:100E00001446F1612246002FD7D198F8003098F8A7
:100E10000110994200F09480591C03EB43039BF8A6
:100E2000024008EBC303C9B28C421C798BF8001056
:100E300008BF8BF80070022C99684ED0032C3FD06D
:100E4000012C24D014462246DDE7C5EB0A0525F027
:100E50007F45B54209D2731B0B60BBE7ED1A2560D5
:100E6000CC610B601446F161CCE708604860886093
:100E700081F810E0C861EAB115680023EB1A0C464E
:100E800013608C46CA614FF001092246BBE70C7C17
:100E90000494002CD6D1DD684D601E698E605C69BB
:100EA000CC609B698B61039B002B8AD0049B4B60B9
:100EB0001D4686E70C468C464FF001092246A2E704
:100EC0000AB9BFE71A46D3691074002BFAD11C4641
:100ED0009C464FF00109224695E752B1914200F03D
:100EE0000B81134602E0B14207D03346DE69002E83
:100EF000F9D114460874224685E7994200F0FE8035
:100F00001446F5693668DD6115B12B6833442B60F2
:100F1000019B0874A24218BF01230193EBE700BFB5
:100F2000680B0020690B0020600B0020780C00206B
:100F3000640B00206A0B0020FEFF7F006C0B00207A
:100F40005746DDF804A0B9F1000F40F04981079B36
:100F5000002B40F0E581099B002B40F0DC81BAF1C9
:100F6000000F03D1069B9A4200F03F81002A00F057
:100F700041816C49029BD1F804051B686A4C1768D3
:100F80002578C21A22F07F420332002D51D1674DDD
:100F9000DFF89CC1DFF89CE14FF48036C1F8446370
:100FA000C1F804634FF40036C5F880612E60012556
:100FB0000D60DCF800602F2100BF00BF00BF00BF44
:100FC00000BF00BF00BF00BF76452FD000BF00BFED
:100FD00000BF00BF00BF00BF00BF00BF00BF00BF19
:100FE00000BF00BF00BF00BF00BF00BF00BF00BF09
:100FF00000BF00BF00BF00BF00BF00BF00BF00BFF9
:1010000000BF00BF00BF00BF00BF00BF00BF00BFE8
:1010100000BF00BF00BF00BF00BF00BF00BF00BFD8
:1010200000BF00BF00BF00BF00BF00BF0139C3D178
:10103000257097422CBFDA199A183A4922F07F435B
:10104000C1F84035D1F80425121A1B1A22F07F424C
:1010500023F07F4303329A4248D9D1F80435344A09
:10106000C1F84035126833492F2300BF00BF00BFCD
:1010700000BF00BF00BF00BF00BF8A422FD000BF2B
:1010800000BF00BF00BF00BF00BF00BF00BF00BF68
:1010900000BF00BF00BF00BF00BF00BF00BF00BF58
:1010A00000BF00BF00BF00BF00BF00BF00BF00BF48
:1010B00000BF00BF00BF00BF00BF00BF00BF00BF38
:1010C00000BF00BF00BF00BF00BF00BF00BF00BF28
:1010D00000BF00BF00BF00BF00BF00BF00BF013B9B
:1010E000C3D1124B4FF40032C3F80021124A00233F
:1010F00013700BB0BDE8F08F16461346D2F81C9063
:10110000B9F1000F1AD0CC464C464FF00109F8E671
:10111000002D62D1121A1A60069301230893069AD1
:1011200034E600BF00100140800C002000E100E028
:101130001C0900200024F4006A0B00207B4C7C4D2D
:10114000C4F808E07B4C4FF02F0C246800BF00BFB0
:1011500000BF00BF00BF00BF00BF00BFAC422FD028
:1011600000BF00BF00BF00BF00BF00BF00BF00BF87
:1011700000BF00BF00BF00BF00BF00BF00BF00BF77
:1011800000BF00BF00BF00BF00BF00BF00BF00BF67
:1011900000BF00BF00BF00BF00BF00BF00BF00BF57
:1011A00000BF00BF00BF00BF00BF00BF00BF00BF47
:1011B00000BF00BF00BF00BF00BF00BF00BF00BF37
:1011C000BCF1010CC2D1012425460994CC464C4601
:1011D000CA4603950795A94693E6059C236099E7BF
:1011E000059B1946C1F800C0B1E6089B002B3FF4EF
:1011F0007DAFBBE64D49504B4E4E4D4C4FF48030C9
:101200004FF400370125C3F88070C1F848032F233D
:10121000C1F808034D6030681E4600BF00BF00BF24
:1012200000BF00BF00BF00BF00BFA0422FD000BF63
:1012300000BF00BF00BF00BF00BF00BF00BF00BFB6
:1012400000BF00BF00BF00BF00BF00BF00BF00BFA6
:1012500000BF00BF00BF00BF00BF00BF00BF00BF96
:1012600000BF00BF00BF00BF00BF00BF00BF00BF86
:1012700000BF00BF00BF00BF00BF00BF00BF00BF76
:1012800000BF00BF00BF00BF00BF00BF00BF013EE6
:10129000C3D18D6002990A6000BF00BF00BF00BFCC
:1012A00000BF00BF00BF00BFA0422FD000BF00BFE3
:1012B00000BF00BF00BF00BF00BF00BF00BF00BF36
:1012C00000BF00BF00BF00BF00BF00BF00BF00BF26
:1012D00000BF00BF00BF00BF00BF00BF00BF00BF16
:1012E00000BF00BF00BF00BF00BF00BF00BF00BF06
:1012F00000BF00BF00BF00BF00BF00BF00BF00BFF6
:1013000000BF00BF00BF00BF00BF00BF013BC3D193
:101310000A4B1A70EAE60A4B9DF80C1019701EE68B
:10132000029B1F6017E6059A136020E5001001403C
:101330000024F4001C09002000E100E0800C0020E3
:101340006A0B0020F0B4564B564A574E574C4FF498
:1013500080304FF400310125C2F88010C3F84803F3
:101360002F21C3F808035D6030680E4600BF00BF40
:1013700000BF00BF00BF00BF00BF00BFA0422FD012
:1013800000BF00BF00BF00BF00BF00BF00BF00BF65
:1013900000BF00BF00BF00BF00BF00BF00BF00BF55
:1013A00000BF00BF00BF00BF00BF00BF00BF00BF45
:1013B00000BF00BF00BF00BF00BF00BF00BF00BF35
:1013C00000BF00BF00BF00BF00BF00BF00BF00BF25
:1013D00000BF00BF00BF00BF00BF00BF00BF00BF15
:1013E000013EC3D19D6000BF00BF00BF00BF00BF72
:1013F00000BF00BF00BFA0422FD000BF00BF00BF92
:1014000000BF00BF00BF00BF00BF00BF00BF00BFE4
:1014100000BF00BF00BF00BF00BF00BF00BF00BFD4
:1014200000BF00BF00BF00BF00BF00BF00BF00BFC4
:1014300000BF00BF00BF00BF00BF00BF00BF00BFB4
:1014400000BF00BF00BF00BF00BF00BF00BF00BFA4
:1014500000BF00BF00BF00BF00BF0139C3D1144EA1
:10146000144D154C1549164F00203070286020701F
:101470004FF48015E0240B26087048708E70387089
:101480001049C2F8805182F814431560C3F808056A
:1014900082F81143D3F804350B60F0BC704700BFED
:1014A0000010014000E100E01C0900200024F400CD
:1014B000800C0020640B0020680B00206C0B0020C7
:1014C000690B0020600B0020074B9B780BB90820AC
:1014D00070473AB130B10368187C0028F7D15974CD
:1014E0005A617047072070476C0B00202DE9F041CE
:1014F000234CA37813B90820BDE8F0810028FAD066
:10150000042902D80720BDE8F0814369002BF2D0FE
:10151000437C0546012B4FF000000CBF88468046F7
:1015200017460E4600F068F86378A07821785A1CB8
:10153000D2B2904208BF002291421AD003EB43037B
:1015400004EBC30301200F499D601871D1F8041505
:10155000D9601E61C3F814809F610020627000F0A2
:1015600053F8094B4FF48012C3F800210020BDE866
:10157000F081002000F048F80420BDE8F08100BFB1
:101580006C0B00200010014000E100E070B5184D28
:10159000AB780BB9082070BD0028FBD04369002B45
:1015A000F8D0002404740646204600F025F86A7836
:1015B000A8782978531CDBB2984208BF2346994289
:1015C00011D002EB420205EBC202022120469660D6
:1015D00011716B7000F018F8064B4FF48012C3F8CD
:1015E0000021204670BD204600F00EF8042070BD9A
:1015F0006C0B002000E100E072B6024A1368013370
:1016000013607047840C0020034A1368013B136089
:1016100003B962B6704700BF840C002010B50D4CB2
:1016200023780BB1852010BD0B4A6360E36010681E
:10163000A36010F00100236107D04FF08042012326
:10164000C2F818352370002010BD072100F0CEF835
:10165000F3E700BF880C002000E100E030B51B4D2F
:10166000AB7883B0044673B110B14368012098474A
:101670000020FFF7C1FFEB6800200133EB60FFF7AC
:10168000C3FF03B030BD03F0FF00FFF7B5FF64B147
:101690002A6942B1944208D0134601E09C4204D02A
:1016A0001B68002BFAD122602C61EB68002BE2D181
:1016B000074A08491360136801934FF080420220E3
:1016C0000123019CC2F804030B60D4E7880C0020BE
:1016D00004010040080000404FF08043D3F8180494
:1016E000C0F30040704700BF30B51A4D6B7883B02F
:1016F000044673B110B14368002098470020FFF7FB
:101700007BFF6B68002001336B60FFF77DFF03B048
:1017100030BD03F0FF00FFF76FFF64B1AA6842B16C
:10172000944208D0134601E09C4204D01B68002B71
:10173000FAD12260AC606B68002BE2D1064A1360DC
:10174000136801934FF0804301220199C3F80423E9
:101750001A60D6E7880C0020000100404FF080435B
:10176000D3F80C0400F00110A0F10110B0FA80F0E1
:101770004009704710B51A4B1A6882B0A2B1002216
:101780001A601B6800934FF080430122154C0099AA
:10179000C3F80823A368627033B10CCB0020A260A9
:1017A0009847A368002BF8D10F4B1A68AAB1002202
:1017B0001A601B6801934FF080430222094C019983
:1017C000C3F8082323690122A27033B10CCB012096
:1017D000226198472369002BF8D102B010BD00BFE9
:1017E00000010040880C002004010040002810B4D3
:1017F00018DB00F1604303F561434901C9B283F886
:101800000013C3B24009800000F1604000F5614060
:1018100003F01F0201239340C0F8803103605DF89C
:10182000044B7047C3B2044A03F00F044901224439
:10183000C9B21176E6E700BFFCEC00E070B55E4B84
:10184000D3F824218AB0BAB10022C3F82421D3F8F6
:1018500024210592059AD3F804216AB9574A022136
:101860009068C3F8080391609268C3F804230122CA
:101870001A625A610AB070BD4F4B504CD3F8042124
:10188000002A30D0002504F10C0207CAC3F8045125
:10189000D3F80461049694F82350049E0AAE06E936
:1018A0000700002D39D0227B012A7FD0D3F84C15B8
:1018B0008DF81E10022A75D03F4BD3F84C25D2B2BA
:1018C0003D4B8DF81F200022C3F86021D3F8601132
:1018D00002910299C3F85C21D3F85C310393039B16
:1018E00094F8255028E0C3F84821D3F84811227B0A
:1018F00001910199002A3BD104F10C0207CA94F826
:1019000025500AAE06E90700FDB94FF0FF32C3F8D3
:101910000052A560C3F8082317E0C3F86051D3F85C
:1019200060210292029AC3F85C51D3F85C3194F8BA
:1019300025500393039B45B91F4B00224FF0FF3105
:10194000C3F80022A260C3F808131B4AD2F8C434BB
:10195000C2F8C4349A071ED501238DF818300DB98A
:1019600084F824502368616806A898470AB070BDBF
:101970004FF4007040F202214FF0FF32C3F8000232
:10198000A160C3F80823A268C3F8042301229A6067
:101990001A620AB070BD13F0040318BF02238DF859
:1019A0001830DCE7D3F83C25D2B289E7D3F83C35D0
:1019B0008DF81E3080E700BF003000409C0C0020F6
:1019C00030B51F4C94F8645083B015B1082003B0B3
:1019D00030BD4FF0FF33FF220721062023636363EE
:1019E000A363E36323646364A364E36423656365BF
:1019F000A365E36523606360A360E36023616361C3
:101A0000A361E361236284F860306362A36284F8B7
:101A10006230E36284F8633084F86120FFF7E6FE09
:101A2000084B094A1D601B68019301984FF0004361
:101A30000121284684F86410C2F8043303B030BD95
:101A4000C40C00207C61004000600040034B93F810
:101A50006400003018BF0120704700BFC40C002094
:101A6000F0B5694C251895F93030002B01DB0820C2
:101A7000F0BD91F803E09446BEF1000F56D0236804
:101A8000013300F0B180082600256B1C5E4F54F82E
:101A90002320013251D0AB1CB34245D257F823204A
:101AA00001324AD0EB1CB3423ED257F82320013218
:101AB00043D02B1DB34237D257F8232001323CD0FC
:101AC0006B1DB34230D257F82370013735D0AB1DB0
:101AD000B34229D254F823204B4F01322DD0EB1DB5
:101AE000B34221D257F82320013226D005F1080352
:101AF000B34219D257F8232001321ED005F1090351
:101B0000B34211D257F82320013216D005F10A034F
:101B1000B34209D257F8237001370ED00B35B542C6
:101B200002D2E36A013307D00420F0BD236A0133F7
:101B300061D00C260825A8E70B2326185DB244F8CF
:101B400023C0324686F83050BEF1000F02D1234444
:101B500083F858008B78D3B91F284A7887BF2B4E5B
:101B600000F01F0303464FF0A04603F5E073920018
:101B700046F82320CB78DBB9083D2C44097894F84B
:101B8000602042EA811284F860201846F0BD1F28C8
:101B900087BF1E4B00F01F0202464FF0A04303EB2D
:101BA0008203D3F8002722F00202C3F80027E1E7FE
:101BB000AB0003F1804303F5C0430A78D3F8101556
:101BC00021F44F3121F44071C3F8101512040002C2
:101BD00002F44031D3F8104500F47C520A4322430A
:101BE000C3F810250020F0BD002385F83030C4F87C
:101BF00000C01D46AEE7082685F830603346C4F8BD
:101C000020C03546A3E700BFC40C002000030050ED
:101C1000F0B43A4D2E1882B096F93030072B20DD03
:101C20002B4493F858309B09032B45D0012B14BF4C
:101C30004FF440324FF400321F284DD900F01F00FE
:101C40002F4B03EB8000D0F8003723F44033C0F86B
:101C50000037D0F800371A43C0F8002702B0F0BCB4
:101C60007047DAB2072AF9D8980000F1804000F5F1
:101C7000C04003F140029200D0F8104592B202F148
:101C80008042002744F0010402F5C042C0F810452C
:101C90000197019817600029E0D096F9302055F897
:101CA0002220002ADAD00122164902FA03F3C1F8F1
:101CB000043302B0F0BC70471F2810D9104BD3F882
:101CC000103500F01F00C34013F0010F0CBF4FF49C
:101CD00000324FF44032B3E74FF0A043B1E74FF08A
:101CE000A0421346D2F81025C24012F0010F0CBFDB
:101CF0004FF400324FF44032A3E700BFC40C002081
:101D000000030050006000401F288ABF054B4FF0C1
:101D1000A04300F01F00D3F8103523FA00F000F0C4
:101D200001007047000300502DE9F04F89B00025F5
:101D3000CE4B039502951A68012A00F04C82CC4BD9
:101D40001A68012A00F03982CA4B1A68012A00F089
:101D50002682C94B1A68012A00F01382C74B1A6801
:101D6000012A00F00082C64B1A68012A00F0ED81BA
:101D7000C44B1A68012A00F0DA81C34B1A68012AA1
:101D800000F0C781C14B1A68012A00F0B18115F03B
:101D9000FF0F1AD0BE4F01260024A30003F1804399
:101DA000354203F5C0434FEA46060BD0D3F8100581
:101DB00057F82420D3F81015C0F30520C1F30141D2
:101DC00002B190470134082CE7D1002D02DB09B0A5
:101DD000BDE8F08FAE4DDFF8BC824FF0FF330693C5
:101DE000079395F9603004AF00225C1C7A6004927E
:101DF0002E4600F000815FFA83FE2EF0C00008AB93
:101E00004FEAD00903EB090C01210EF007031CF87F
:101E1000082C01FA03F312EA030421D032184FEA26
:101E20009E1192F9302056F82220002A00F03981C4
:101E3000032900F039811F2800F2068104464FF083
:101E4000A04A04F5E0791CF8184C5AF829C01C4047
:101E5000CCF3014C40F0EC80BCF1030F00F0238286
:101E600095F96130581C35D0DBB223F0C00008AAC8
:101E70004FEAD00C02EB0C0E4FF0010903F0070201
:101E80001EF8081C09FA02F2114223D006EB0009E1
:101E9000990999F9309056F82990B9F1000F00F09E
:101EA0000981032900F009811F2800F2F58084468A
:101EB0004FF0A04A0CF5E07C1EF818BC5AF82CE054
:101EC0001BEA020FCEF3014E40F0C380BEF1030FB8
:101ED00000F0CE8195F96230591C34D0DBB223F08A
:101EE000C00008AA4FEAD00C02EB0C0E4FF001091B
:101EF00003F007021EF8081C09FA02F2114222D070
:101F000006EB0009990999F9309056F82990B9F132
:101F1000000F00F0E380032900F0E3801F2800F2A7
:101F2000828084464FF0A04A0CF5E07C1EF818BC75
:101F30005AF82CE01BEA020FCEF3014E68D1BEF135
:101F4000030F00F07A8195F963305A1C38D0DBB268
:101F500023F0C00008AA4FEAD00C02EB0C0E4FF0A1
:101F6000010903F007021EF8081C09FA02F21142E7
:101F700026D006EB0009990999F9309056F8299076
:101F8000B9F1000F00F0A080032900F0A0801F2805
:101F90008ABF03F01F0C8446DFF8F8A01EF818BCB7
:101FA00098BF4FF0A04A0CF5E07C1BEA020F5AF8EC
:101FB0002CE0CEF3014E20D1BEF1030F00F01981C9
:101FC000002C3FF404AF4FF0A0430299D3F8103532
:101FD000D8F81025994203D1039991423FF4F7AE06
:101FE000029395F960300498059903925C1C069061
:101FF00007917FF400AF002432E7BEF1020FDFD17A
:10200000032900F07681B9F1000FD9D0C847D7E78E
:10201000BEF1020F97D1032900F06E81B9F1000FD4
:1020200091D0C8478FE703F01F0CDFF868A07BE76B
:10203000BCF1020FDFD1032900F064810024002AE3
:102040003FF40EAF90470BE70EF01F04DFF844A0FB
:10205000F7E6BEF1020F7FF43DAF032900F04F8198
:10206000B9F1000F3FF436AFC84733E700610040D5
:1020700004610040086100400C61004010610040B4
:1020800014610040186100401C6100407C61004008
:10209000C40C00200003005003F01F0CDFF86CA2FA
:1020A00008E7032940F0A38017F809401C4307F80C
:1020B0000940C0E603297FF40DAF17F80CA04AEAE7
:1020C000020A07F80CA0EFE603297FF479AF17F8AE
:1020D0000CA04AEA020A07F80CA058E703297FF48B
:1020E00032AF17F80CA04AEA020A07F80CA015E76D
:1020F00000221A601B6801934FF0A042019BD2F8A6
:102100001025824B0292D3F81035039345F0004519
:102110003DE67F4AD2F8042316067FF533AE00224F
:102120001A601B680093009B45F080052AE6784AF8
:10213000D2F8042357067FF520AE00221A601B68F0
:102140000093009B45F0400517E6714AD2F804233E
:1021500092067FF50DAE00221A601B680093009B6B
:1021600045F0200504E66A4AD2F80423D1067FF53B
:10217000FAAD00221A601B680093009B45F0100521
:10218000F1E5634AD2F8042310077FF5E7AD00229A
:102190001A601B680093009B45F00805DEE55C4A69
:1021A000D2F8042354077FF5D4AD00221A601B68CF
:1021B0000093009B45F00405CBE5554AD2F8042373
:1021C00096077FF5C1AD00221A601B680093009B43
:1021D00045F00205B8E54E49D1F8041311F00101AC
:1021E00029D01D601B680093009B1546A7E5144687
:1021F00036E603297FF407AF4FF4003C1F288BBF5E
:10220000424A4FF0A04203F01F03034602EB830E45
:102210000134DEF8002722F44032CEF80027DEF841
:10222000002742EA0C02E4B2CEF80027B9F1000F11
:102230007FF4ECAEC7E60D4681E503297FF4EEAEF0
:102240004FF4003C1F2848D803464FF0A04202EB51
:10225000830E0134DEF8003723F44033CEF8003724
:10226000DEF800274CEA0202E4B2CEF80027D5E6F9
:1022700003297FF4F5AE4FF4003C1F2831D8034604
:102280004FF0A04202EB830E0134DEF8003723F456
:102290004033CEF80037DEF800274CEA0202E4B201
:1022A000CEF80027DCE603297FF4C9AE4FF40039ED
:1022B0001F281AD803464FF0A04404EB83030124DF
:1022C000D3F800C72CF4403CC3F800C7D3F800E7AC
:1022D00049EA0E0EC3F800E7B1E603F01F030B4A0C
:1022E000B5E703F01F03094ACCE70EF01F03074CC4
:1022F000E3E74FF4403C81E74FF4403CA2E74FF462
:10230000403CBAE74FF44039D2E700BF0003005029
:10231000006000400220FEF7D5BA00BF2DE9F0476B
:102320000D460646FEF70CFB03281ED8012D044679
:102330001FD00ED3022D1AD11C4B00EB40041C44BD
:10234000657895B11A4B1B687BB12846BDE8F0470C
:1023500018471848FFF71AF91449174A04EB4403C1
:102360000B44155D9B789D42EBD0BDE8F087BDE83E
:10237000F087DFF8388047003B1808EB030218F8B5
:10238000035053782BB9274447440B4BBA781A555E
:10239000D7E7DFF8289007484A464FF40041FFF797
:1023A000A5F80028EFD189F80060ECE7A80D00201F
:1023B0005C0D0020600D0020580D00204C0D002009
:1023C00010B50078FEF7BCFA03280BD8064B00EBDB
:1023D00040001844407828B1044B1B6813B1BDE895
:1023E0001040184710BD00BFA80D00205C0D002054
:1023F000B34B1B68DB0700D4704770B5B14EB24DCC
:1024000033782C78FBB9172C1CD8DFE814F0F100D6
:102410001401140163007600830096005D0039000A
:102420002C0039002C00A300A800A800A800A800D8
:10243000A800CE00DE000101460018001800FEF7DB
:102440002BFA2C7070BDA14B1B7800203070002B34
:1024500000F00581FEF7F6F90120FEF7F3F90320FD
:10246000FEF7F0F9CFE7012318463370FEF72AFA9A
:1024700000224FF480419648BDE87040FFF736B81F
:10248000012318463370FEF71DFA002240F6CD41B5
:102490008F48BDE87040FFF729B88C4B1B78002BA4
:1024A00000F0FE800020FEF7CDF90120FEF7CAF90A
:1024B0000320FEF7C7F90020FEF7B0F90120FEF770
:1024C000ADF915232B7070BD0020FEF7A7F9072387
:1024D0002B7070BD0020FEF78BF9002800F0D38030
:1024E0000020FEF7AFF946F2666103232B7000224D
:1024F0007748BDE87040FEF7F9BF0020FEF778F995
:10250000002800F0C5800020FEF79CF94FF4003150
:102510000423EBE70020FEF76BF9002800F0BD80F4
:102520000020FEF78FF905232B70002241F69A1147
:102530006748BDE87040FEF7D9BF0020FEF7C2F93A
:1025400006232B70002240F6CD416148BDE8704063
:10255000FEF7CCBFFEF7A0F90C232B7070BD5D48D1
:10256000FFF714F8D4F1110405467BD0002879D187
:10257000012C13D0C82303FB04F44FF4FA704FF47A
:1025800000430021C3FB04014FF47A72002332F0B0
:102590005BFD2A4601464F48FEF7A8FF0220FEF7E2
:1025A0003DF94A4B01221A7070BD484B1B78002B35
:1025B00079D00020FEF746F90120FEF743F9032009
:1025C000FEF740F912232B7070BD404B1B78002B97
:1025D0006FD00020FEF736F90120FEF733F9032013
:1025E000FEF730F90020FEF719F913232B7070BDA8
:1025F000364B1B78002B59D00020FEF723F9012021
:10260000FEF720F90320FEF71DF900232B7070BDA3
:102610002E4B1B78002B4FD00020FEF713F9012022
:10262000FEF710F90320FEF70DF90120FEF7F6F88A
:1026300014232B7070BD0020FEF7DAF8C8B100201B
:10264000FEF700F9022C4EF2666118BF4FF400311C
:102650002C7000221E48BDE87040FEF747BFFEF711
:1026600005F9D0E60220FEF7EDF8184B00221A70AB
:1026700070BDFEF7D3F843F2333341F69A11022CC2
:1026800018BF1946E4E7FEF7C9F841F69A112CE79E
:10269000FEF7C4F843F233313AE7FEF7BFF842E7FA
:1026A000FEF7E4F807E7FEF7E1F88BE7FEF7DEF860
:1026B000ABE7FEF7DBF895E7FEF7D8F8B5E700BF24
:1026C000500D0020540D0020800D0020A40D00208E
:1026D0002C0D0020840D002038B5C44B1B6813F06E
:1026E000010401D1204638BDC14C23780546E3B929
:1026F000172D00F27881DFE815F00B01310131016F
:1027000069007D009100A5005B00350028003500C0
:102710002800B300BA00BA00BA00BA00BA00E30059
:10272000F6001C01420063006300B24B1B780020DE
:102730002070002B00F02781FEF784F80120FEF7BF
:1027400081F80320FEF77EF8D2E7012318462370B4
:10275000FEF7B8F800224FF48041A748BDE83840A2
:10276000FEF7C4BE012318462370FEF7ABF8002223
:1027700040F6CD41A048BDE83840FEF7B7BE9D4BBE
:102780001B78002B00F020810020FEF75BF8012071
:10279000FEF758F80320FEF755F80020FEF73EF844
:1027A0000120FEF73BF8954B15221A70002499E79B
:1027B0000020FEF733F8914B07221A70002491E7AE
:1027C000FEF76AF88D4B00241D708BE70020FEF7A2
:1027D0000FF8002800F0E1800020FEF733F846F201
:1027E0006661864B844803241C700022BDE8384093
:1027F000FEF77CBE0020FDF7FBFF002800F0DC8028
:102800000020FEF71FF84FF400317C4B7A48042477
:102810001C700022BDE83840FEF768BE0020FDF7BE
:10282000E7FF002800F0CD800020FEF70BF8734B87
:10283000714805241C70002241F69A11BDE8384009
:10284000FEF754BE0020FEF73DF86C4B6A480624A4
:102850001C70002240F6CD41BDE83840FEF746BE70
:10286000FEF71AF8654B0C221A7000243AE7644808
:10287000FEF78CFE0446D5F1110000F08780002C95
:1028800040F08480012814D0C82505FB00F54FF4E2
:1028900000434FF4FA700021C3FB05014FF47A7234
:1028A000002332F0D1FB224601465548FEF71EFEBA
:1028B00004460220FDF7B2FF4E4B01221A7011E7C9
:1028C0004C4B1B78002B00F082800020FDF7BAFFF4
:1028D0000120FDF7B7FF0320FDF7B4FF474B12229D
:1028E0001A700024FEE6434B1B78002B75D00020A5
:1028F000FDF7A8FF0120FDF7A5FF0320FDF7A2FFCC
:102900000020FDF78BFF3D4B13221A700024E9E6EF
:10291000384B1B78002B5DD00020FDF793FF012082
:10292000FDF790FF0320FDF78DFF344B00241C7052
:10293000D8E6304B1B78002B52D00020FDF782FFE9
:102940000120FDF77FFF0320FDF77CFF0120FDF74D
:1029500065FF2A4B14221A700024C3E60020FDF7FD
:1029600047FFF8B10020FDF76DFF022D4EF26661C2
:1029700018BF4FF40031214B1F481D700022BDE8E5
:102980003840FEF7B3BDFDF771FFB1E60220FDF759
:1029900059FF184B00221A70A4E6FDF73FFF41F6DD
:1029A0009A111EE7FDF73AFF43F2333341F69A11CD
:1029B000022D18BF1946DEE7FDF730FF43F2333131
:1029C00023E7FDF72BFF32E7FDF750FFE5E6FDF7C4
:1029D0004DFF83E7FDF74AFFA7E7FDF747FF8FE7C6
:1029E000FDF744FFB2E700247CE600BF500D002055
:1029F000540D0020A40D00202C0D0020800D00207F
:102A0000840D0020F0B5204A204B1060044610F0E1
:102A1000020083B0196013D01D4B1E480E210F27F2
:102A200010261125197040F266620421DF709E7134
:102A30005D72FEF777F8A0B1E3071DD403B0F0BDD7
:102A4000E20719D4144A15480021FEF73DFD00287D
:102A5000F4D1134A1348012103B0BDE8F040FEF75A
:102A600033BDFEF7B5F80028E6D101460E4A0F48FF
:102A7000FEF72AFDE10703D50190FDF743FF01981A
:102A80000028DFD003B0F0BD500D00205C0D002009
:102A9000A80D00207C6C0300F1230000786C03007B
:102AA000152300009C6C0300C1230000746C03001C
:102AB00008B51B78802B00D008BD0D4B07220120E4
:102AC0001A70FDF795FE68B10020FDF7BBFE0120EE
:102AD000FDF7B8FE002241F69A110648BDE808400D
:102AE000FEF704BDFDF79AFE0120FDF797FEF1E722
:102AF000C10D0020C40D0020420700D4704708B566
:102B0000084605F0CBFC88B1831E022B0A4A06D981
:102B1000062313701846BDE80840FFF7DDBD072304
:102B200013701846BDE80840FFF7D6BD024A107082
:102B3000BDE80840FFF7D0BDC20D002008B51C4B12
:102B40001B78032B27D8DFE803F0211207020120AE
:102B5000BDE80840FDF762BE0120FDF7B3FE00228C
:102B600040F6CD411348BDE80840FEF7BFBC012048
:102B7000FDF73EFE80B90120FDF750FE41F69A11A7
:102B800000220C48BDE80840FEF7B0BC0120BDE8BB
:102B90000840FDF757BE08BD0120FDF753FE46F281
:102BA000666100220348BDE80840FEF79FBC00BFF5
:102BB000C00D0020E40D002008B52C4A1378013B1D
:102BC000DBB2137083B10120FDF712FEA0B9FDF74F
:102BD00025FE0120FDF722FE002241F69A1124482D
:102BE000BDE80840FEF782BC224B1B78032B0DD8B2
:102BF000DFE803F0121B2B090020FDF723FE012064
:102C0000FDF720FEE8E70120FDF708FE1A4B1878D3
:102C1000BDE80840FFF760BD0120FDF713FE164B2D
:102C20001878BDE80840FFF757BD0120FDF7E0FD2B
:102C3000A8B10120FDF706FE46F2666100220F48AA
:102C4000FEF754FC0028E1D008BD0120FDF73AFE54
:102C5000002240F6CD410948FEF748FCF2E701208A
:102C6000FDF7DCFD41F69A11E8E700BFC10D002039
:102C7000C40D0020C00D0020C20D0020E40D002076
:102C8000F8B51A4E1A4B1B4F002421460C2205465C
:102C900030461C703C70FDF755FB2146164B174A19
:102CA00017483360FEF710FC044660B12A46154908
:102CB000284605F00DF898B928460C4904F09BFF0A
:102CC00040B92046F8BD01460F4A1048FEF7FCFB0C
:102CD0000446EBE70E4B0F4A0F48E62132F048FB63
:102CE0000E4B0C4A0C48E52132F042FBB40D00209B
:102CF000C00D0020C20D0020B12A00003D2B0000B5
:102D0000A06C0300F92A0000B92B0000A46C03009A
:102D10004C6D0300946D0300046D0300A86C030068
:102D2000704700BF01490320FDF744BDB86D0300A3
:102D3000430700D47047F0B508468FB00C4605F045
:102D4000ADFB0238022804D8184B1D7F55B10FB0D7
:102D5000F0BD164A00239360D3601361137753606C
:102D60000FB0F0BD03AE2C220127294630461F7755
:102D7000FDF7E8FA352307A90D48ADF82E308DF898
:102D8000307005F01EF820462B460A4C0A4A019680
:102D900069468DF80850009404F028FF0028D6D02A
:102DA00006490320FDF706FDD1E700BFFC0800201F
:102DB000046E0300A46D0300C12D0000186E030013
:102DC00070B40F4C9DF80C50207F012801D070BCCE
:102DD00070471646022222775DB90A4A9142F6D11F
:102DE000002BF4D030687168B268F36804340FC403
:102DF000EDE72A460449032070BCFDF7E9BC00BF9B
:102E0000FC080020A46D0300406E030008B5FEF727
:102E100005FC002840F099800020FEF71FFC0020F0
:102E2000FDF7B6FC0021084620F039FA04F03EFF19
:102E30000546002800F0838000F04AFB2A464A49F4
:102E4000284604F045FF002873D1284604F06EFEA2
:102E500060B90B21284604F0E4FF00287ED14AF631
:102E6000CD31284605F028F8002871D101212846E7
:102E700004F058FF002856D10121284605F07DFBBB
:102E800000284AD1394C284641F23361256004F0CC
:102E900096FD024600283AD13549206804F0A3FD8A
:102EA000FEF750FA80BB33490320FFF7ABFD40BB70
:102EB0002068FFF7E5FE08BB00234FF4F0314FF028
:102EC000A045032007E041FA03F2D20744BF03F50F
:102ED000E07245F822000133202BF4D14FF0A043DB
:102EE0004FF4F0310022C3F80815C3F80C25206810
:102EF00005F0F2F9206820F0E5F9F8E7FDF77EFE2D
:102F0000DAE7FDF77BFED3E7FDF778FECBE71A4B58
:102F10001A4A1B48FD2132F02BFA1A4B1A4A18485C
:102F2000F62132F025FA194B174A1548F52132F0EF
:102F30001FFA174B144A1248ED2132F019FA154BBB
:102F4000114A0F48E62132F013FAFDF757FE63E706
:102F5000114B0D4A0A48F22132F00AFA0F4B0A4A85
:102F60000748F12132F004FA312D0000FC0800205E
:102F7000252D0000212D0000646F0300B86F0300B1
:102F80006C6E03002C6F0300AC6F0300F86E03003F
:102F9000A86C0300606E0300BC6E03007C6E03002F
:102FA0002DE9F84F4300DFF870A11E180AEBC606A2
:102FB0008846F16A0129174641D031D3022939D117
:102FC000013000EB4000756A4FEAC0094FF0000B7A
:102FD0001CE0326A641BBC420AEB09012346A2EBE7
:102FE000050428BF3B469C42486828BF1C4628442D
:102FF0004146224632F027FA336A25449D4208BFF3
:1030000000253F1BA344A044756215D0B36AAB42B0
:1030100003F1FF34DDD8326A1344013B5C1BDAE76D
:10302000B16A726A91429CBF346A091901398A1ADD
:10303000974236D94FF0000B5846BDE8F88FB16A79
:10304000756AA94227D90139326AC5EB010B0344DD
:103050000AEBC30ABB45DAF824502F4B28BFBB4606
:10306000561B0130B34500EB40003BD303EBC004DB
:103070003246606841462844C6EB0B0532F0E3F95E
:10308000606808EB06012A4632F0DDF9CAF82450E0
:103090005846BDE8F88F326A8C18013CC5EB040B2A
:1030A000D5E703440AEBC30A0130DAF82460DAF802
:1030B0002040194BA41BA74200EB40001ED303EB9A
:1030C000C00522466868414630443E1B32F0BBF9D9
:1030D000686808EB0401324632F0B5F9BB46CAF81D
:1030E0002460A9E703EBC003414658685A462844C8
:1030F0005D4432F0A8F9CAF824509DE703EBC00301
:10310000414658683A4630443E4432F09CF9BB464A
:10311000CAF8246090E700BF14CB00202DE9F047E7
:10312000304C94F800E082B00546884617461E46AB
:10313000BEF1000F2CD02369DFF8A8A0AB424DD917
:103140004FF000094846CDF80490FEF755FA6DB9E6
:1031500029460D4404EBC5040A9BE3620020019B51
:10316000FEF752FA002002B0BDE8F0876B1C03EBBB
:103170004303DB0069004A190AEBC2024AF80380E4
:103180005344C2F828905F601662C2F82490E0E7CA
:103190000222154B2261154862614FF40071144AF6
:1031A000A361A3641023C4F828E02365C4F824E0D5
:1031B000C4F82CE0C4F858E0C4F85CE0C4F854E06B
:1031C000E0612162E2640B49E01D32F037FD0A49FB
:1031D000204632F033FD2023A371ACE74FF0FF30DF
:1031E000C1E700BF14CB0020C46F0300140E002001
:1031F000040E0020D06F0300D46F0300F8B5114C0B
:103200002378F3B9A362104A63620220A365E362E4
:10321000E36563650D4F0E4D0E49206110234FF499
:10322000007623656061A261A264E01DE761266209
:10323000E56432F003FD0849204632F0FFFC20230C
:10324000A371F8BD14CB0020C46F0300140E00203E
:10325000040E0020D06F0300D46F03000649074A14
:10326000074B9B1A03DD043BC858D050FBDC00F031
:1032700013F8FCF7F3FF000018E70300980800209C
:10328000E80A0020FEE7FEE7FEE7FEE7FEE7FEE7CE
:10329000FEE7FEE7FEE7FEE770B45E4B1B68082B17
:1032A00019D05D4AD2F8883043F47003C2F88830F0
:1032B000BFF34F8FBFF36F8F4FF01023D3F800226F
:1032C000002A75DBD3F80432002B71DB534B544AD0
:1032D0001A6070BC7047534B19680029E1D14FF058
:1032E00080404FF08052C0F80C114F4BC0F81011C5
:1032F000C0F83815D2F80414C3F82015D2F8081411
:10330000C3F82415D2F80C14C3F82815D2F81014F9
:10331000C3F82C15D2F81414C3F83015D2F81814C9
:10332000C3F83415D2F81C14C3F84015D2F8201491
:10333000C3F84415D2F82414C3F84815D2F8281459
:10334000C3F84C15D2F82C14C3F85015D2F8301429
:10335000C3F85415D2F83414C3F86015D2F83814F1
:10336000C3F86415D2F83C14C3F86815D2F84014B9
:10337000C3F86C15D2F844642C4C2D49C3F8706521
:103380002C4D2560FB23C1F81835D0F8E43ED2F867
:10339000581204F50F3423F00F0204F56D7401F098
:1033A0000F0313434FF40072C0F8E43E226078E745
:1033B000214B0122C3F80425D3F80024002AFBD0B6
:1033C0004FF0102312221C49C3F80022D1F8003418
:1033D000002BFBD04FF0102312221749C3F8042210
:1033E000D1F80024144B002AFAD00022C3F8042597
:1033F000D3F80024002AFBD0BFF34F8F06490F4BB0
:10340000CA6802F4E0621343CB60BFF34F8F00BF82
:10341000FDE700BF3001001000ED00E01C090020B6
:103420000090D0033401001000C000408C560040D2
:1034300000F000404881030000E001400400FA056C
:103440000EB410B5A3B025AB044653F8042B01937A
:10345000802102A832F09AFD02A832F00CFC236809
:1034600082B21B6802A92046984723B0BDE81040ED
:1034700003B07047B0F80636B0F80826C3F580618F
:103480008A42CCBFA0F80A16A0F80A26B0F80A169D
:1034900021B100F2062018441FF0A8BF70470000B9
:1034A00010B50A4B0360044600F20C6000F03AFBD2
:1034B0000023A4F80432A4F80636A4F80836A4F8C9
:1034C0000A361FF081FF204610BD00BFEC6F0300DD
:1034D00010B5044C01462046FFF7E2FF024B1C608A
:1034E00010BD00BF181000201410002010B5B0F857
:1034F0000432C2180446D2780A2A06D1013B9BB294
:10350000A0F80432034400221A71B4F80432E2181D
:10351000D2780D2A06D1013B9BB2A4F80432234491
:1035200000221A7104F20C602346B4F80422211D13
:1035300003F024F90020A4F8040210BD2DE9F8439B
:103540002A4FDFF8AC80DFF8AC9004468E180D46A9
:10355000B542294648D20B780A2B05F1010519D04E
:1035600014D8082B2CD0B4F80432B3F5007FEFDA6E
:10357000236801221B6820469847B4F804325A1C7D
:10358000A4F8042215F8012C23442BE00D2B01D0C4
:103590007F2BE7E7236802221B68394620469847BD
:1035A000B4F804322BB1234400221A712046FFF7ED
:1035B0009DFF236802221B68414620469847C7E7C3
:1035C000B4F80432002BC3D0236803221B68494699
:1035D00020469847B4F80432013B9BB2A4F8043269
:1035E000002223441A71B3E7BDE8F883E16F0300BA
:1035F000DF6F0300DC6F0300024B0A4601461868C8
:10360000FFF79CBF14100020B0F80A360BB9FFF783
:1036100031BF704770B5B0F80846C4F58064A4B2F5
:103620009442A8BF14460D466B1A9C420FDDB0F8B9
:103630000826B0F8063615F8016B1344C3F30903E6
:103640000344013283F80662A0F80826ECE7FFF78E
:10365000DBFF204670BDB0F80A16B0F806260A4413
:10366000C2F30902A0F80626B0F80826521AA0F8FC
:1036700008260022A0F80A26FFF7FCBE014B1868B6
:10368000FFF7E9BF14100020F8B5074E074D0746B5
:103690000024786BA259036829465B680C3498476C
:1036A000B4F53D7FF5D1F8BD247A0300788203009C
:1036B000D0F82C0104F02DBBD0F82C0104F027BB6E
:1036C00070B5456B2B680446D0F82C015E6804F099
:1036D000F1FE054902462846B047606B034903687E
:1036E000BDE870405B6818477C7103009E72030060
:1036F00070B5446B0B46216818464D68114622F0A0
:10370000B0FB2B46024602492046BDE870401847F0
:1037100078820300406B024903685B68184700BF6A
:103720009E72030030B504468BB001A9D0F82C017D
:1037300004F089FD606BBDF8042003682B495B68C9
:103740009847606BBDF80620036829495B68984775
:10375000606BBDF80820036826495D68BDF80A3033
:10376000A847606BBDF80C20036823495D68BDF86D
:103770000E30A847606BBDF8102003681F495D68D4
:10378000BDF81230A847606BBDF8142003681C49CF
:103790005D68BDF81630A847606BBDF81820036857
:1037A00018495D68BDF81A30A847606BBDF81C2049
:1037B000036815495D68BDF81E30A847606BBDF809
:1037C0002020036811495D68BDF82230A847606B6E
:1037D000BDF8242003680E495D68BDF82630A8476F
:1037E0002046FFF797FF0BB030BD00BFB87703004E
:1037F000C4770300CF770300E1770300F37703007A
:10380000007803000D7803001A780300277803007E
:1038100035780300F0B5224E8FB00446002509AA82
:10382000E9B2D4F82C0104F088FF002833D19DF8C8
:103830003630DB072DD5606BBDF834100768069174
:10384000BDF83210BDF82630BDF8242049BA89B23F
:103850000591BDF8301049BA89B20491BDF82E1017
:1038600049BA89B20391BDF82C1049BA89B20291C4
:10387000BDF82A1049BA89B20191BDF8281049BA99
:1038800089B200915BBA52BA7F689BB292B231465C
:10389000B8470135C3E72046FFF73CFF0FB0F0BD46
:1038A000DC76030038B5044604F054FE636B05492A
:1038B0001A68556802461846A8472046BDE83840B1
:1038C000FFF728BF7882030070B5044659B9406BF2
:1038D000664903685B689847606B65490368BDE8A3
:1038E00070405B6818476349106832F09DF9002802
:1038F00040F0BB80D4F82C0104F099FB0546606BC6
:103900002A6803685C495B689847606B6A6803686B
:103910005A495B689847606BAA68036858495B68B6
:103920009847606BEA68036856495B689847606B24
:103930002A69036854495B689847606B6A69036841
:1039400052495B689847606BAA69036850495B6895
:103950009847606BEA6903684E495B689847606BFB
:103960002A6A03684C495B689847606B6A6A036817
:103970004A495B689847606BAA6A036848495B6874
:103980009847606BEA6A036846495B689847606BD2
:103990002A6B036844495B689847606BAA6B0368AD
:1039A00042495B689847606BEA6B036840495B6813
:1039B0009847606B2A6C03683E495B689847606B68
:1039C0006A6C03683C495B689847606BAA6C036843
:1039D0003A495B689847606BEA6C036838495B68F2
:1039E0009847606B2A6D036836495B689847606B3F
:1039F0006A6D036834495B689847606BAA6D036819
:103A000032495B689847606BEA6D036830495B68D0
:103A10009847606B2A6E03682E495B689847606B15
:103A20006A6E03682C495B689847606BAA6E0368EE
:103A30002A495B689847606BEA6E036828495B68AF
:103A40009847606B2A6F036826495B689847606BEC
:103A50006A6F036824495B689847606BAA6F0368C4
:103A600022495B68BDE87040184770BD9873030039
:103A70009E7203009E730300A2730300B0730300E1
:103A8000C4730300DA730300F373030005740300C7
:103A9000207403003174030046740300597403005A
:103AA000737403008574030097740300AA74030001
:103AB000B8740300CC740300E2740300F3740300D1
:103AC000087503001B750300357503004775030077
:103AD000657503008275030099750300B0750300D6
:103AE000D1750300EF75030002760300157603001D
:103AF00010B50446D0F82C0104F07BFD636B1A6806
:103B0000526838B10449184690472046BDE8104035
:103B1000FFF700BE0149F6E7267703002D77030083
:103B200000BA704770B5044600250E46206329464A
:103B300045632C223830FCF705FC0823A4F86430D8
:103B40000123A4F866304FF47A73A36606F50143A7
:103B50003833E366174B236704F16C03E3672946A8
:103B60006467A56784F8EC50C4F82C61602204F106
:103B70008000FCF7E7FB22460F49304604F0A8F826
:103B80002246D4F82C010D4904F0E8FC0C4BC4F893
:103B9000E03004F1E001C4F8E440D4F82C0104F072
:103BA0002AF83E22294604F1ED00FCF7CBFB204623
:103BB00070BD00BFED5F0000A1680000116900004A
:103BC000A95E00002DE9F041074690460C4632F010
:103BD00052F83D1800F001060130B8EB500F12D337
:103BE000384621460022854221D910F8013BA3F135
:103BF0004107052F0BD8373B1343DBB29EB10B7047
:103C000000260131EEE74FF0FF30BDE8F081A3F16F
:103C10006107052F01D8573BEEE7303BDBB2092B9C
:103C2000F1D81343EAE71B01DAB20126DBE7081BF0
:103C3000BDE8F08170B50C4619B9BDE87040FFF7DA
:103C400069BD456B2B6808465E6805F01FFE22467D
:103C50000346B44628460249BDE87040604700BFAD
:103C60006E82030070B505460E46A9B9D0F82C0146
:103C700004F09AFC0446686B03685B6844B1114920
:103C80009847304601462846BDE87040FFF7D2BF4E
:103C90000D4998472046F5E714680C49204631F055
:103CA000C3FF28B90121D5F82C0104F097FCE9E7FE
:103CB0000749204631F0B8FF01460028F3D007201D
:103CC000E0E700BF267703002D770300988F0300FD
:103CD000888F030010B5044603F098FD0146204686
:103CE000BDE81040FFF7A6BF10B5436B0446D0F8FF
:103CF0002C0103F073FB01462046BDE81040FFF79E
:103D000099BF000070B5054671B9D0F82C0104F0D8
:103D10001BF80446686B03685B681CB10F49984741
:103D200000200CE00E49FAE714680E49204631F0F5
:103D30007BFF50B90121D5F82C0103F0F3FF0146B8
:103D40002846BDE87040FFF775BF0749204631F0AF
:103D50006BFF01460028E3D1EDE700BFFB760300CF
:103D600000770300CFAA03000777030037B50446A6
:103D70006946D0F82C0104F095FB054608BB606B42
:103D8000009A036812495B689847606B9DF80420AD
:103D9000036810495B689847606B9DF805200368CD
:103DA0000D495B689847606B9DF8062003680B49D6
:103DB0005B689847606B9DF80720036808495B685B
:103DC000984729462046FFF735FF03B030BD00BFB6
:103DD0004A7803005D780300747803006D7803006F
:103DE00087780300F0B5134685B00446D9B9D0F8FA
:103DF0002C01154F04F0A9FC461E00F10F05606B65
:103E000016F8012F036839465B689847B542F6D12A
:103E1000606B0E4903685B68984700212046FFF7F6
:103E200009FF05B0F0BD102269461868FFF7CAFE09
:103E3000102806D16946D4F82C0104F08BFC014609
:103E4000ECE70621EAE700BF439B03009D820300E5
:103E50002DE9F341002304468DF80430002933D1C5
:103E6000D0F82C0104F07BFA8DF80400C00704D5CB
:103E7000606B444903685B6898479DF80430990774
:103E800004D5606B404903685B6898479DF804302F
:103E90005A0704D5606B3D4903685B6898479DF8F5
:103EA00004301B0704D5606B394903685B68984789
:103EB000606B384903685B6898470021204602B070
:103EC000BDE8F041FFF7B6BE16684FF0000EF446AD
:103ED000F0467746013E194618461D4616F8012F52
:103EE0005AB36E2A26D018D8642A20D02DB19DF856
:103EF00004306CF300038DF8043028B19DF80430D1
:103F00006EF341038DF8043029B19DF8043067F356
:103F100082038DF804300621D0E7722A04D0732A78
:103F2000E4D101208646D9E70125AC46D6E7012138
:103F30000F46D3E701239846D0E72DB19DF8042022
:103F40006CF300028DF8042028B19DF804206EF374
:103F500041028DF8042029B19DF8042067F3820204
:103F60008DF804202BB19DF8043068F3C3038DF85D
:103F700004309DF80410D4F82C0104F018FA01461E
:103F80009CE700BFDA8A030084A60300B0BF0300E9
:103F9000BD8A03009D82030010B50446D0F82C01B1
:103FA00003F0BFFD01462046BDE81040FFF742BECA
:103FB0002DE9F04186B001AF04463946D0F82C0116
:103FC00004F07DFA0646002831D1606B1B49036876
:103FD000DFF880805B6898473546606B7A5D0368E0
:103FE00041465B6801359847082DF6D1606B14494E
:103FF00003685B689847606BBDF80C200368114943
:104000005B689847606B9DF8112003680E495B68F8
:104010009847606B9DF8122003680C495B689847CD
:10402000606B9DF81320036809495B689847314627
:104030002046FFF7FFFD06B0BDE8F0815172030096
:104040009D8203005C720300677203007D720300AF
:1040500094720300439B030038B5044671B9D0F84D
:104060002C0103F0D1FF20B1D4F82C011FF034FB58
:1040700048BB606B174903685B6828E01568164900
:10408000284631F0D1FD80B91449D4F82C012246DC
:1040900003F0B5FF0121D4F82C0103F0BAFF01466B
:1040A0002046BDE83840FFF7C5BD28460C4931F031
:1040B000BBFD054660B901460246D4F82C0103F069
:1040C0009EFF2946E7E7606B064903685B689847EF
:1040D0000020E4E706790300ED7803002161000089
:1040E000F4780300FC78030070B505460E46A1B9CC
:1040F000D0F82C0104F09EFA0446686B03685B68F4
:1041000044B111499847344621462846BDE87040DD
:10411000FFF790BD0D499847F6E716680C49304601
:1041200031F082FD044628B90121D5F82C0104F0B4
:1041300086FAE9E70749304631F076FD044608B9CA
:104140000146F2E70624DFE7FC7803000679030066
:10415000ED780300F478030038B5044600292BD12C
:10416000D0F82C0104F09AF9636B042820D8DFE81A
:1041700000F0030F13171B001A68254952681846F0
:104180009047002001462046BDE83840FFF752BD69
:104190001A6820495268F2E71A681F495268EEE728
:1041A0001A681E495268EAE71A681D495268E6E72C
:1041B0001A681C495268E2E715681B49284631F025
:1041C00033FD20B9D4F82C0104F05DF9DAE7174982
:1041D000284631F029FD20B9D4F82C0104F058F913
:1041E000D0E71349284631F01FFD20B9D4F82C013F
:1041F00004F063FAC6E70F49284631F015FD20B9EF
:10420000D4F82C0104F06BFABCE70620BAE700BF33
:10421000B2710300BD710300C8710300D0710300C7
:10422000D9710300E2710300F2710300FB71030016
:104230000172030008720300002938B5044617DD37
:1042400015680C49284631F0EFFC50B90121D4F82B
:104250002C0104F092F901462046BDE83840FFF7F2
:10426000E9BC0549284631F0DFFC01460028EED0C4
:104270000620F0E7217D030093730300F0B50F1EC5
:1042800087B00546164628DD14681749204631F0E8
:10429000CBFCB8B9012F20D0144B0393144B0193DE
:1042A000022F144B00934FF000040CBF0246B2687B
:1042B00004950294104B7168D5F82C0103F08CFD25
:1042C00000210BE00D49204631F0AEFC0028F7D16B
:1042D000D5F82C0103F088FDF2E70621284607B047
:1042E000BDE8F040FFF7A6BC217D03007167000028
:1042F00038720300487203002D72030093730300A9
:10430000F0B5134685B00446D9B9D0F82C01154F45
:1043100004F064F8461E00F10F05606B16F8012FDB
:10432000036839465B689847B542F6D1606B0E4921
:1043300003685B68984700212046FFF77BFC05B0C7
:10434000F0BD102269461868FFF73CFC102806D122
:104350006946D4F82C0104F046F80146ECE7062142
:10436000EAE700BF439B03009D820300F8B50546C2
:104370000C4689B9D0F82C0104F054F86E6B0A4948
:10438000336810225F6803463046B8472146284606
:10439000BDE8F840FFF74EBC1168D0F82C0104F0DE
:1043A00045F80146F3E700BFE67803002DE9F04148
:1043B000084E07460D4690460C46631B984507DDA0
:1043C000786B14F8012B036831465B689847F4E773
:1043D000BDE8F081439B03002DE9F041B1F10008F5
:1043E00086B0054617462CDCD0F82C0103F0E1FD21
:1043F0006B6B1A68526898B13C493D4E184690471D
:10440000002403AAE1B2D5F82C0103F0C6FD48B19F
:10441000002421462846FFF70DFC06B0BDE8F081D8
:104420003449EAE79DF814304BB103A92846082225
:10443000FFF7BCFF686B036831465B68984701343F
:10444000DFE716682C49304631F0EEFBB8B9B8F119
:10445000010F12D0082201A97868FFF7B3FB0828E2
:104460000BD101A9D5F82C0103F082FD01A9D5F8E3
:104470002C0103F07DFD0028CAD00624C9E71F499E
:10448000304631F0D1FB044620B9D5F82C0103F0B9
:104490007FFDBEE71A49304631F0C6FB044628B915
:1044A0000146D5F82C0103F080FDB2E715493046EE
:1044B00031F0BAFB044608B90121F2E7124930464F
:1044C00031F0B2FB04460028A2D1B8F1010FD4D0DC
:1044D000082201A97868FFF775FB0828CDD101A94A
:1044E000D5F82C0103F04FFD93E700BFFC780300E3
:1044F0009D820300067903000C7703001077030008
:10450000F4780300ED7803001677030037B505460D
:104510000C46A1B96946D0F82C0103F0B9FC082279
:1045200069462846FFF742FF686B064903685B68E7
:10453000984721462846FFF77DFB03B030BD062192
:10454000F8E700BF9D82030037B505460C46A1B9C8
:104550006946D0F82C0103F09DFC082269462846E4
:10456000FFF724FF686B064903685B68984721469C
:104570002846FFF75FFB03B030BD0621F8E700BF18
:104580009D8203002DE9F041B1F1000886B0054697
:10459000174639DCD0F82C0103F0E6FC6B6B1A6887
:1045A0005268A0B14A494B4E4B4F184690470024E1
:1045B00003AAE1B2D5F82C0103F0CAFC48B10024EB
:1045C00021462846FFF736FB06B0BDE8F081434997
:1045D000E9E79DF81530DA0714D5082203A9284623
:1045E000FFF7E4FE9DF815309B0706D5686B9DF933
:1045F0001420036839465B689847686B0368314646
:104600005B6898470134D3E716683549304631F086
:104610000BFB044630BBB8F1010F16D0082201A9EC
:104620007868FFF7CFFA08280FD1B8F1020F0ED043
:1046300022462146B86831F0CFFB01A942B2D5F835
:104640002C0103F069FC0028B9D00624B8E701A9C1
:10465000D5F82C0103F055FC01A9D5F82C0103F085
:1046600050FCF0E71F49304631F0DEFA044620B92D
:10467000D5F82C0103F067FCA2E71B49304631F066
:10468000D3FA044628B90146D5F82C0103F068FC9A
:1046900096E71649304631F0C7FA044608B90121B9
:1046A000F2E71349304631F0BFFA0446002886D1BC
:1046B000B8F1010FC9D0082201A97868FFF782FA82
:1046C0000828C2D101A9D5F82C0103F037FC77E7FF
:1046D000FC7803009D820300AEBF0300067903004F
:1046E0000C77030010770300F4780300ED780300E3
:1046F0001677030037B5134605460C4699B9D0F82E
:104700002C0103F0AAFB082201462846FFF74EFEC3
:10471000686B0D4903685B68984721462846FFF798
:1047200089FA03B030BD082269461868FFF74AFAD3
:10473000002801DA0621F1E76946D5F82C0103F0DB
:1047400090FB0146EAE700BF9D82030037B51346A0
:1047500005460C4699B9D0F82C0103F0CCFD08228F
:1047600001462846FFF722FE686B0D4903685B6827
:10477000984721462846FFF75DFA03B030BD08226E
:1047800069461868FFF71EFA002801DA0621F1E7EA
:104790006946D5F82C0103F0B2FD0146EAE700BFF7
:1047A0009D82030013B500220C4601A931F014FBD1
:1047B000019B20601B78002B14BF0620002002B054
:1047C00010BD0000F7B505460C4689B9466BD0F818
:1047D0002C0133685F6803F020FB0C490246304629
:1047E000B847204601462846FFF724FA03B0F0BD3B
:1047F00001A91068FFF7D6FF0028F3D19DF8041037
:10480000D5F82C0103F00DFBECE700BF717103003C
:104810002DE9F04F002989B0044640F3A4801568C3
:104820009849284631F000FA00282ED096492846AB
:1048300031F0FAF9002840F09880606B93490368E2
:104840005B689847606B924903685B6898470126EC
:10485000D4F82C01DFF894A203F0DAFE0027814699
:10486000F9B249450FDA0DF104084246D4F82C019B
:1048700003F053FF054650B117286FD0606B854990
:1048800003685B6898470025F4E00646E0E7039B71
:10489000002B63D0606BBDF8162003685B68002EA8
:1048A0005ED07D49DFF848B29847606BBDF81420B0
:1048B000036851465B689847606B039A03687749C1
:1048C0005B689847606B049A036874495B68984713
:1048D000606B9DF81920036871495B689847606BAD
:1048E0009DF8182003686F495B689847606B9DF8D6
:1048F0001C2003686C495B6802F001029847606BFA
:104900009DF81C20036868495B68C2F34002984721
:10491000606B9DF81C20036863495B68C2F38002EA
:104920009847606B9DF81C2003685F495B68C2F381
:10493000C0029847606B5D4903685B689847606B8D
:1049400018F80520036859465B6801359847082D1B
:10495000F5D1606B564903685B68984701377FE77C
:1049600054499847FAE7062584E028466946FFF748
:1049700019FF054600287DD101AF3A46BDF8001069
:10498000D4F82C0103F0C1FE0546002872D1606BFB
:10499000BDF81620036848495B68DFF854819847E2
:1049A000606BBDF81420036844495B689847606BEE
:1049B000434903685B6898472E46606BBA5D03689D
:1049C00041465B6801369847082EF6D1606B314945
:1049D00003685B689847606B3A4903685B6898476F
:1049E0009DF81C30D80704D5606B374903685B68B5
:1049F00098479DF81C30990704D5606B33490368CC
:104A00005B6898479DF81C305A0704D5606B3049A5
:104A100003685B6898479DF81C301B0704D5606BE2
:104A20002C4903685B689847606B1A4903685B68A8
:104A30009847606B9DF81820036827495B68984782
:104A4000606B039A036825495B689847606B049A1A
:104A5000036823495B689847606B9DF819200368D9
:104A600020495B689847606B9DF91A2003681E49CE
:104A70005B68984729462046FFF7DCF809B0BDE897
:104A8000F08F00BF527F0300877003008D7003001A
:104A9000E47003009D8203003B7103004C7103002E
:104AA000547103005B71030062710300F17903002C
:104AB000F3720300DD790300677103007671030070
:104AC0005172030083710300DA8A030084A6030095
:104AD000B0BF0300BD8A03008A710300997103000F
:104AE0009472030067720300A77103004271030010
:104AF000439B0300F7B505460C4689B9466BD0F8D1
:104B00002C0133685F6803F083FD0C490246304690
:104B1000B847204601462846FFF78CF803B0F0BDA1
:104B200001A91068FFF73EFE0028F3D19DF804109C
:104B3000D5F82C0103F079FDECE700BF717103009B
:104B4000F7B505460C4681B9466BD0F82C013368A1
:104B50005F6803F0C7FB0B4902463046B847214661
:104B60002846FFF767F803B0F0BD01A91068FFF70A
:104B700019FE04460028F2D10199D5F82C0103F062
:104B8000B5FBECE77171030073B5044679B9456B69
:104B9000D0F82C012B685E6803F070FD0A490246CC
:104BA0002846B0472046FEF7B5FD02B070BD01A90A
:104BB0001068FFF7F7FD0028F4D10199D4F82C0113
:104BC00003F061FDEEE700BF7171030010B500292D
:104BD00086B004461FDD05A91068FFF7E3FDE0B9C4
:104BE000059B012199400F4B0193002302940093F0
:104BF0004FF6FF72D4F82C0103F000FD68B9606B2A
:104C0000094903685B689847606B084903685B68FB
:104C1000984706B010BD0021E5E701462046FFF7A2
:104C200009F8F6E7A56600002A76030083760300FC
:104C30002DE9F04790B005AF0E46352304461546E2
:104C400000212C2238460193FBF77CFB002E51DD1E
:104C50002949286830F0E8FF00284BD194F8EC90FF
:104C6000B9F1000F40D1012E44D0D5F804A0504630
:104C700031F001F83D283DD804F1ED085146404699
:104C800030F0DCFF2C2249463846FBF75BFB012362
:104C9000022E8DF838300BD0A96809A80DF021FD3F
:104CA00018BB032E09D001A9E868FFF77BFD03E0DC
:104CB000124909A80DF015FDB8B9019BADF83630C1
:104CC00000238DF810300E4AD4F82C01CDF808805E
:104CD000234602A9039702F089FF30B9012384F823
:104CE000EC3010B0BDE8F087052001462046FEF705
:104CF000A1FFF6E70720F8E7F46F0300FC6F03005D
:104D0000395B00004B1E012B2DE9F34105460F4690
:104D1000164644D8D2F800802349404630F084FF3C
:104D20000446F8B9012F0BD16E6BD5F82C0133680E
:104D30005F6803F097FB02461C493046B8470AE01B
:104D400001A97068FFF72EFD044620B90199D5F836
:104D50002C0103F08BFB21462846FEF76BFF02B0C7
:104D6000BDE8F0811249404630F05EFF0446C0B90C
:104D7000012F07D16E6BD5F82C0133685F6803F003
:104D80007AFBD8E701A97068FFF70CFD04460028FC
:104D9000E1D10199D5F82C0103F071FBDBE7062482
:104DA000D9E70024D7E700BFD4780300717103006E
:104DB000DC780300F7B505460C4681B9466BD0F8A0
:104DC0002C0133685F6803F03FFC0C490246304613
:104DD000B84721462846FEF72DFF03B0F0BD01A9D4
:104DE0001068FFF7DFFC04460028F2D19DF804109C
:104DF000D5F82C0103F02CFCEBE700BF7171030028
:104E00007FB50E1E0546144606DC072421462846BB
:104E1000FEF710FF04B070BD08220DEB0201206800
:104E2000FEF7D0FE002822DB012E11D10DF1030286
:104E300002A9D5F82C0103F0C0F804460028E4D1FB
:104E4000686B9DF8032003680A495B689847DDE7B3
:104E5000606801A9FFF7A6FC04460028D6D19DF89A
:104E60000420D5F82C0102A903F0B8F8CEE70624F7
:104E7000CCE700BF71710300F7B505460C4681B958
:104E8000466BD0F82C0133685F6803F001FC0C49D5
:104E900002463046B84721462846FEF7CBFE03B00F
:104EA000F0BD01A91068FFF77DFC04460028F2D18F
:104EB0009DF80410D5F82C0103F0EEFBEBE700BFE2
:104EC00071710300F7B505460C4689B9466BD0F8F9
:104ED0002C0133685F6802F0EBFF0C490246304654
:104EE000B847204601462846FEF7A4FE03B0F0BDB1
:104EF00001A91068FFF756FC0028F3D1BDF8041093
:104F0000D5F82C0102F0D8FFECE700BF7C7103005C
:104F1000F7B505460C4689B9466BD0F82C013368C5
:104F20005F6803F032FC0C4902463046B847204621
:104F300001462846FEF77EFE03B0F0BD01A91068C9
:104F4000FFF730FC0028F3D19DF90410D5F82C01AF
:104F500003F020FCECE700BF71710300F7B50546D4
:104F60000C4699B9466BD0F82C0133685F6802F0A3
:104F7000BFFF4FF47A720D49B0FBF2F23046B847EA
:104F800021462846FEF756FE03B0F0BD01A9106881
:104F9000FFF708FC04460028F2D1019BD5F82C014C
:104FA0004FF47A71594302F0A7FFE9E771710300EA
:104FB000002913B5044610DD01A91068FFF7F2FBC4
:104FC00028B99DF80410D4F82C0103F071FB0146B8
:104FD0002046FEF72FFE02B010BD0620F7E70000C6
:104FE0002DE9F04F002987B0044640F38B80156807
:104FF0008049284630F018FE00282ED07E492846E9
:1050000030F012FE00287FD1606B7C4903685B683A
:105010009847606B7A4903685B6898470126DFF818
:105020003092DFF830A200270DF104085FFA87FB09
:1050300042465946D4F82C0103F077FB054670B17F
:10504000606B704903685B689847002529462046D5
:10505000FEF7F0FD07B0BDE8F08F0646DFE79DF8EC
:105060001430D90748D5606B03685B68002E45D0C3
:105070009DF80E20DFF8E0B149469847606BBDF817
:105080000C20036851465B689847606B9DF80F20C1
:1050900003685D495B689847606B9DF81020036862
:1050A0005A495B689847606B9DF81120036858491E
:1050B0005B689847606B9DF81220036855495B68F0
:1050C0009847606B9DF81320036853495B689847C5
:1050D000606B524903685B689847606B18F805205D
:1050E000036859465B6801359847082DF5D1606B18
:1050F0004B4903685B689847013795E75A46494929
:105100009847F9E70625A1E728466946FFF74AFBD5
:10511000054600289AD101AF3A46BDF80010D4F8F0
:105120002C0103F002FB054600288FD1606B9DF82F
:10513000142003683C495B6802F0010298479DF81F
:105140001430DA0782D5606B9DF80E20036837496A
:105150005B689847606BBDF80C20036834495B6856
:105160009847606B9DF80F20036832495B68920294
:105170009847606B9DF8142003682F495B68C2F361
:10518000400298479DF814309B077FF55FAF606B36
:105190002A490368DFF8C0805B6898472E46606B39
:1051A000BA5D036841465B6801369847082EF6D120
:1051B000606B144903685B689847606B9DF810202A
:1051C00003681F495B689847606B9DF8112003686E
:1051D0001C495B689847606B9DF8122003681A4968
:1051E0005B689847606B9DF81320036817495B68FC
:1051F00098472BE7527F030087700300A5720300D6
:10520000F87203009D8203004B7303005273030086
:1052100054710300597303003B710300F1790300DB
:10522000F3720300DD790300607303008E780300DE
:10523000767103006C7303007D73030051720300E9
:1052400088730300677203007D7203009472030089
:10525000F579030042710300439B0300F7B505464F
:105260000C4681B9466BD0F82C0133685F6803F0B7
:105270003BFA0C4902463046B84721462846FEF71D
:10528000D9FC03B0F0BD01A91068FFF78BFA044602
:105290000028F2D19DF80410D5F82C0103F028FA6B
:1052A000EBE700BF71710300F7B505460C4681B905
:1052B000466BD0F82C0133685F6803F01DFA0E4985
:1052C00002463046B84721462846FEF7B3FC03B0F5
:1052D000F0BD01A91068FFF765FA04460028F2D175
:1052E00001994B1EFE2B05D8C9B2D5F82C0103F04D
:1052F00007FAE8E70724E6E771710300F7B505460A
:105300000C4681B9466BD0F82C0133685F6803F016
:10531000C7F90C4902463046B84721462846FEF7F1
:1053200089FC03B0F0BD01A91068FFF73BFA044601
:105330000028F2D19DF80410D5F82C0103F0B4F93F
:10534000EBE700BF7171030030B5002985B004465A
:1053500020DD03A91068FFF725FAA8B9039B0125F2
:105360009D40606B0C4903685B689847606B0B4914
:1053700003685B6898470094094BD4F82C0100221D
:10538000294602F059FE18B101462046FEF752FCAC
:1053900005B030BD0025E4E72A76030083760300DC
:1053A000A5660000F7B505460C4681B9466BD0F8F6
:1053B0002C0133685F6802F072FD0C4902463046EA
:1053C000B84721462846FEF735FC03B0F0BD01A9D9
:1053D0001068FFF7E7F904460028F2D19DF90410A0
:1053E000D5F82C0102F05FFDEBE700BF5F990300E9
:1053F000F7B505460C4689B9466BD0F82C013368E1
:105400005F6803F031F90C4902463046B847204640
:1054100001462846FEF70EFC03B0F0BD01A9106856
:10542000FFF7C0F90028F3D1BDF80410D5F82C011E
:1054300003F01FF9ECE700BF717103002DE9F0479D
:1054400002298AB007468946904644DD01A9506882
:1054500002F0B7FC054698B902240DF1140A4C4538
:10546000E6B213D0142C10D0694658F82400FFF788
:1054700099F920B9009B04F80A300134EFE705469A
:1054800029463846FEF7D6FB14E02646D8F80040F9
:10549000124912238DF814302046B31E8DF81530B2
:1054A00030F0C2FB48B9334605AA01A9D7F82C0150
:1054B00003F059F80AB0BDE8F0870949204630F0FA
:1054C000B3FB0028DCD1334605AA01A9D7F82C018B
:1054D00003F04EF8D4E70625D2E700BF5579030064
:1054E000C87D030013B500220C4601A930F00CFD65
:1054F000019B20601B78002B14BF0620002002B007
:1055000010BD0000F7B505460C46A1B9466BD0F8B2
:105510002C0133685F6802F05FFB4FF47A720F4929
:10552000B0FBF2F23046B847204601462846FEF767
:1055300081FB03B0F0BD01290ED101A91068FFF76E
:10554000D1FF0028F1D1019BD5F82C014FF47A71DD
:10555000594302F046FBE8E70720E6E771710300D4
:10556000F7B505460C4681B9466BD0F82C01336877
:105570005F6803F071F80B4902463046B847214690
:105580002846FEF757FB03B0F0BD01A91068FFF7EE
:10559000A9FF04460028F2D10199D5F82C0103F0A7
:1055A0005FF8ECE7587803002DE9F04F0F1E99B033
:1055B0000646144640F35181D2F80090A849484667
:1055C00030F032FB50B9D6F82C0102F01CFA01463B
:1055D0003046FEF72FFB19B0BDE8F08FA1494846D1
:1055E00030F022FB20B9D6F82C0102F011FAEEE7D8
:1055F0009D49484630F018FB00283FD1022F40F368
:105600002C81A5689949284630F00EFB08B3082282
:1056100010A92846FEF7D6FA082840F01E8110ADE2
:10562000D4F804809249404630F0FEFAD0B9032FF6
:1056300000F013817823042F09930CD1099BE268B1
:10564000D6F82C01294602F0E8F90028BFD1002045
:10565000BDE70546E4E709A92069FFF743FF0028F5
:10566000B5D1EBE78349404630F0DEFA0028EED1B1
:105670002946D6F82C0102F0D5F9E6E77E494846DE
:1056800030F0D2FA014638B9012FD6F82C0118BFF4
:10569000616802F0CDF99AE77849484630F0C4FADB
:1056A00038BB042F40F3D98007A96068FFF77AF868
:1056B00000288CD108A9A068FFF774F8002886D1CB
:1056C00009A9E068FFF76EF8002880D110AD2946DF
:1056D000206902F076FB00287FF479AFBDF8243012
:1056E0009DF8202000950799D6F82C0102F0A5F925
:1056F0006DE76349484630F097FA002837D1052F07
:1057000040F3AB8006A96068FFF74CF800287FF4EF
:105710005EAF07A9A068FFF745F800287FF457AFF0
:1057200008A9E068FFF73EF800287FF450AF09A908
:105730002069FFF737F800287FF449AF10AD2946FC
:10574000606902F03EFB00287FF441AF4D490291B1
:10575000BDF824100091BDF820309DF81C20039660
:1057600001950699D6F82C0102F06CF92FE746490D
:10577000484630F059FA10BB032F6EDD08A9606867
:10578000FFF710F800287FF422AF09A9A068FFF7FF
:1057900009F800287FF41BAF10A9E06802F011FBA4
:1057A00000287FF414AF394B0093BDF82010019608
:1057B00010AB099AD6F82C0102F04EF907E73449EC
:1057C000484630F031FA0546002840F09580DFF871
:1057D000D0A0DFF8D0B04FF00108474540F38580F6
:1057E0001F2D00F2428154F828902A49484630F093
:1057F0001BFA60B918AB05F101091D44092305F82E
:10580000203C08F101085FFA88F84D46E5E751466B
:10581000484630F009FA28B918AB05F101091D44D2
:105820000B23ECE75946484630F0FEF928B918AB8F
:1058300005F101091D440823E1E71749484630F006
:10584000F3F928B918AB05F101091D441223D6E775
:105850001249484630F0E8F930B30620B7E600BFF9
:10586000217D030093730300287903002F7903003F
:105870000C770300167703003179030041790300A8
:105880004A79030001670000BB7D03003167000017
:105890005179030059790300787903008679030070
:1058A000617903006B79030008F101085FFA88F859
:1058B0004745D2DD54F828300593184630F0DBF91F
:1058C0000222013090FBF2F9C5F120024A45C0F0F6
:1058D000CC8010AB5919059B1FFA89F21846FEF7C8
:1058E00071F90028B9DBA9448BE7EAB210A9D6F810
:1058F0002C0102F0B9F86AE66649484630F094F99E
:105900008046002840F0B3801A22002109A8FAF747
:1059100019FDDFF898B102256B1EDBB29F4240F300
:105920009B80B8F11F0F00F3A08054F823905A49D0
:10593000484630F079F9A8B9AF428EDD9DF83C3089
:1059400054F8250043F0010308A98DF83C30FEF718
:1059500029FF00287FF43BAE089BADF824300235C8
:10596000EDB2D9E74D49484630F05EF9A0B9AF42F3
:105970007FF773AF9DF83C3054F8250043F00203E5
:1059800008A98DF83C30FEF70DFF00287FF41FAE0C
:10599000089BADF82630E2E75946484630F044F916
:1059A000824608BBAF427FF758AF9DF83C3054F8B1
:1059B000259043F0040348468DF83C3030F05BF905
:1059C00001304FEA5008B8F1100F4ED81FFA88F294
:1059D0000DF129014846FEF7F5F80028FFF63DAF26
:1059E0008DF82880D046BAE72D49484630F01CF99A
:1059F000A0B9AF427FF731AF9DF83C3054F8250095
:105A000043F0080308A98DF83C30FEF7CBFE0028D0
:105A10007FF4DDAD089BADF83A30A0E72149484658
:105A200030F002F900287FF418AFAF427FF715AFCE
:105A300054F82590484630F01EF901304FEA5008DE
:105A4000B8F1200F11D81FFA88F210A94846FEF7C6
:105A5000B9F8002883DA00E75FFA88F310AA09A9E9
:105A6000D6F82C0102F005F8B1E50320AFE50B49AB
:105A7000484630F0D9F800287FF4E9AD756BD6F8C8
:105A80002C012B685F6801F0F9FF074902462846A0
:105A9000B847DCE58D79030059790300617903008B
:105AA0007879030086790300717103006B79030034
:105AB0002DE9F0410546406B88B0984603689DF893
:105AC00038605B6814460A461949984756BB686BAC
:105AD000668822880768CDF81880E3895BBA9BB294
